{
    "abi": [
        {
            "type": "constructor",
            "inputs": [
                {
                    "name": "initialMinter",
                    "type": "address",
                    "internalType": "address"
                }
            ],
            "stateMutability": "nonpayable"
        },
        {
            "type": "function",
            "name": "DEFAULT_ADMIN_ROLE",
            "inputs": [],
            "outputs": [
                {
                    "name": "",
                    "type": "bytes32",
                    "internalType": "bytes32"
                }
            ],
            "stateMutability": "view"
        },
        {
            "type": "function",
            "name": "MINTER_ROLE",
            "inputs": [],
            "outputs": [
                {
                    "name": "",
                    "type": "bytes32",
                    "internalType": "bytes32"
                }
            ],
            "stateMutability": "view"
        },
        {
            "type": "function",
            "name": "PAUSER_ROLE",
            "inputs": [],
            "outputs": [
                {
                    "name": "",
                    "type": "bytes32",
                    "internalType": "bytes32"
                }
            ],
            "stateMutability": "view"
        },
        {
            "type": "function",
            "name": "allowance",
            "inputs": [
                {
                    "name": "owner",
                    "type": "address",
                    "internalType": "address"
                },
                {
                    "name": "spender",
                    "type": "address",
                    "internalType": "address"
                }
            ],
            "outputs": [
                {
                    "name": "",
                    "type": "uint256",
                    "internalType": "uint256"
                }
            ],
            "stateMutability": "view"
        },
        {
            "type": "function",
            "name": "approve",
            "inputs": [
                {
                    "name": "spender",
                    "type": "address",
                    "internalType": "address"
                },
                {
                    "name": "value",
                    "type": "uint256",
                    "internalType": "uint256"
                }
            ],
            "outputs": [
                {
                    "name": "",
                    "type": "bool",
                    "internalType": "bool"
                }
            ],
            "stateMutability": "nonpayable"
        },
        {
            "type": "function",
            "name": "balanceOf",
            "inputs": [
                {
                    "name": "account",
                    "type": "address",
                    "internalType": "address"
                }
            ],
            "outputs": [
                {
                    "name": "",
                    "type": "uint256",
                    "internalType": "uint256"
                }
            ],
            "stateMutability": "view"
        },
        {
            "type": "function",
            "name": "burnFrom",
            "inputs": [
                {
                    "name": "from",
                    "type": "address",
                    "internalType": "address"
                },
                {
                    "name": "amount",
                    "type": "uint256",
                    "internalType": "uint256"
                }
            ],
            "outputs": [],
            "stateMutability": "nonpayable"
        },
        {
            "type": "function",
            "name": "decimals",
            "inputs": [],
            "outputs": [
                {
                    "name": "",
                    "type": "uint8",
                    "internalType": "uint8"
                }
            ],
            "stateMutability": "view"
        },
        {
            "type": "function",
            "name": "getRoleAdmin",
            "inputs": [
                {
                    "name": "role",
                    "type": "bytes32",
                    "internalType": "bytes32"
                }
            ],
            "outputs": [
                {
                    "name": "",
                    "type": "bytes32",
                    "internalType": "bytes32"
                }
            ],
            "stateMutability": "view"
        },
        {
            "type": "function",
            "name": "grantRole",
            "inputs": [
                {
                    "name": "role",
                    "type": "bytes32",
                    "internalType": "bytes32"
                },
                {
                    "name": "account",
                    "type": "address",
                    "internalType": "address"
                }
            ],
            "outputs": [],
            "stateMutability": "nonpayable"
        },
        {
            "type": "function",
            "name": "hasRole",
            "inputs": [
                {
                    "name": "role",
                    "type": "bytes32",
                    "internalType": "bytes32"
                },
                {
                    "name": "account",
                    "type": "address",
                    "internalType": "address"
                }
            ],
            "outputs": [
                {
                    "name": "",
                    "type": "bool",
                    "internalType": "bool"
                }
            ],
            "stateMutability": "view"
        },
        {
            "type": "function",
            "name": "mint",
            "inputs": [
                {
                    "name": "to",
                    "type": "address",
                    "internalType": "address"
                },
                {
                    "name": "amount",
                    "type": "uint256",
                    "internalType": "uint256"
                }
            ],
            "outputs": [],
            "stateMutability": "nonpayable"
        },
        {
            "type": "function",
            "name": "minter",
            "inputs": [],
            "outputs": [
                {
                    "name": "",
                    "type": "address",
                    "internalType": "address"
                }
            ],
            "stateMutability": "view"
        },
        {
            "type": "function",
            "name": "name",
            "inputs": [],
            "outputs": [
                {
                    "name": "",
                    "type": "string",
                    "internalType": "string"
                }
            ],
            "stateMutability": "view"
        },
        {
            "type": "function",
            "name": "pause",
            "inputs": [],
            "outputs": [],
            "stateMutability": "nonpayable"
        },
        {
            "type": "function",
            "name": "paused",
            "inputs": [],
            "outputs": [
                {
                    "name": "",
                    "type": "bool",
                    "internalType": "bool"
                }
            ],
            "stateMutability": "view"
        },
        {
            "type": "function",
            "name": "renounceRole",
            "inputs": [
                {
                    "name": "role",
                    "type": "bytes32",
                    "internalType": "bytes32"
                },
                {
                    "name": "callerConfirmation",
                    "type": "address",
                    "internalType": "address"
                }
            ],
            "outputs": [],
            "stateMutability": "nonpayable"
        },
        {
            "type": "function",
            "name": "revokeRole",
            "inputs": [
                {
                    "name": "role",
                    "type": "bytes32",
                    "internalType": "bytes32"
                },
                {
                    "name": "account",
                    "type": "address",
                    "internalType": "address"
                }
            ],
            "outputs": [],
            "stateMutability": "nonpayable"
        },
        {
            "type": "function",
            "name": "setMinter",
            "inputs": [
                {
                    "name": "newMinter",
                    "type": "address",
                    "internalType": "address"
                }
            ],
            "outputs": [],
            "stateMutability": "nonpayable"
        },
        {
            "type": "function",
            "name": "supportsInterface",
            "inputs": [
                {
                    "name": "interfaceId",
                    "type": "bytes4",
                    "internalType": "bytes4"
                }
            ],
            "outputs": [
                {
                    "name": "",
                    "type": "bool",
                    "internalType": "bool"
                }
            ],
            "stateMutability": "view"
        },
        {
            "type": "function",
            "name": "symbol",
            "inputs": [],
            "outputs": [
                {
                    "name": "",
                    "type": "string",
                    "internalType": "string"
                }
            ],
            "stateMutability": "view"
        },
        {
            "type": "function",
            "name": "totalSupply",
            "inputs": [],
            "outputs": [
                {
                    "name": "",
                    "type": "uint256",
                    "internalType": "uint256"
                }
            ],
            "stateMutability": "view"
        },
        {
            "type": "function",
            "name": "transfer",
            "inputs": [
                {
                    "name": "to",
                    "type": "address",
                    "internalType": "address"
                },
                {
                    "name": "value",
                    "type": "uint256",
                    "internalType": "uint256"
                }
            ],
            "outputs": [
                {
                    "name": "",
                    "type": "bool",
                    "internalType": "bool"
                }
            ],
            "stateMutability": "nonpayable"
        },
        {
            "type": "function",
            "name": "transferFrom",
            "inputs": [
                {
                    "name": "from",
                    "type": "address",
                    "internalType": "address"
                },
                {
                    "name": "to",
                    "type": "address",
                    "internalType": "address"
                },
                {
                    "name": "value",
                    "type": "uint256",
                    "internalType": "uint256"
                }
            ],
            "outputs": [
                {
                    "name": "",
                    "type": "bool",
                    "internalType": "bool"
                }
            ],
            "stateMutability": "nonpayable"
        },
        {
            "type": "function",
            "name": "unpause",
            "inputs": [],
            "outputs": [],
            "stateMutability": "nonpayable"
        },
        {
            "type": "event",
            "name": "Approval",
            "inputs": [
                {
                    "name": "owner",
                    "type": "address",
                    "indexed": true,
                    "internalType": "address"
                },
                {
                    "name": "spender",
                    "type": "address",
                    "indexed": true,
                    "internalType": "address"
                },
                {
                    "name": "value",
                    "type": "uint256",
                    "indexed": false,
                    "internalType": "uint256"
                }
            ],
            "anonymous": false
        },
        {
            "type": "event",
            "name": "MinterUpdated",
            "inputs": [
                {
                    "name": "previousMinter",
                    "type": "address",
                    "indexed": true,
                    "internalType": "address"
                },
                {
                    "name": "newMinter",
                    "type": "address",
                    "indexed": true,
                    "internalType": "address"
                }
            ],
            "anonymous": false
        },
        {
            "type": "event",
            "name": "Paused",
            "inputs": [
                {
                    "name": "account",
                    "type": "address",
                    "indexed": false,
                    "internalType": "address"
                }
            ],
            "anonymous": false
        },
        {
            "type": "event",
            "name": "RoleAdminChanged",
            "inputs": [
                {
                    "name": "role",
                    "type": "bytes32",
                    "indexed": true,
                    "internalType": "bytes32"
                },
                {
                    "name": "previousAdminRole",
                    "type": "bytes32",
                    "indexed": true,
                    "internalType": "bytes32"
                },
                {
                    "name": "newAdminRole",
                    "type": "bytes32",
                    "indexed": true,
                    "internalType": "bytes32"
                }
            ],
            "anonymous": false
        },
        {
            "type": "event",
            "name": "RoleGranted",
            "inputs": [
                {
                    "name": "role",
                    "type": "bytes32",
                    "indexed": true,
                    "internalType": "bytes32"
                },
                {
                    "name": "account",
                    "type": "address",
                    "indexed": true,
                    "internalType": "address"
                },
                {
                    "name": "sender",
                    "type": "address",
                    "indexed": true,
                    "internalType": "address"
                }
            ],
            "anonymous": false
        },
        {
            "type": "event",
            "name": "RoleRevoked",
            "inputs": [
                {
                    "name": "role",
                    "type": "bytes32",
                    "indexed": true,
                    "internalType": "bytes32"
                },
                {
                    "name": "account",
                    "type": "address",
                    "indexed": true,
                    "internalType": "address"
                },
                {
                    "name": "sender",
                    "type": "address",
                    "indexed": true,
                    "internalType": "address"
                }
            ],
            "anonymous": false
        },
        {
            "type": "event",
            "name": "Transfer",
            "inputs": [
                {
                    "name": "from",
                    "type": "address",
                    "indexed": true,
                    "internalType": "address"
                },
                {
                    "name": "to",
                    "type": "address",
                    "indexed": true,
                    "internalType": "address"
                },
                {
                    "name": "value",
                    "type": "uint256",
                    "indexed": false,
                    "internalType": "uint256"
                }
            ],
            "anonymous": false
        },
        {
            "type": "event",
            "name": "Unpaused",
            "inputs": [
                {
                    "name": "account",
                    "type": "address",
                    "indexed": false,
                    "internalType": "address"
                }
            ],
            "anonymous": false
        },
        {
            "type": "error",
            "name": "AccessControlBadConfirmation",
            "inputs": []
        },
        {
            "type": "error",
            "name": "AccessControlUnauthorizedAccount",
            "inputs": [
                {
                    "name": "account",
                    "type": "address",
                    "internalType": "address"
                },
                {
                    "name": "neededRole",
                    "type": "bytes32",
                    "internalType": "bytes32"
                }
            ]
        },
        {
            "type": "error",
            "name": "BurnAmountExceedsAllowance",
            "inputs": []
        },
        {
            "type": "error",
            "name": "ERC20InsufficientAllowance",
            "inputs": [
                {
                    "name": "spender",
                    "type": "address",
                    "internalType": "address"
                },
                {
                    "name": "allowance",
                    "type": "uint256",
                    "internalType": "uint256"
                },
                {
                    "name": "needed",
                    "type": "uint256",
                    "internalType": "uint256"
                }
            ]
        },
        {
            "type": "error",
            "name": "ERC20InsufficientBalance",
            "inputs": [
                {
                    "name": "sender",
                    "type": "address",
                    "internalType": "address"
                },
                {
                    "name": "balance",
                    "type": "uint256",
                    "internalType": "uint256"
                },
                {
                    "name": "needed",
                    "type": "uint256",
                    "internalType": "uint256"
                }
            ]
        },
        {
            "type": "error",
            "name": "ERC20InvalidApprover",
            "inputs": [
                {
                    "name": "approver",
                    "type": "address",
                    "internalType": "address"
                }
            ]
        },
        {
            "type": "error",
            "name": "ERC20InvalidReceiver",
            "inputs": [
                {
                    "name": "receiver",
                    "type": "address",
                    "internalType": "address"
                }
            ]
        },
        {
            "type": "error",
            "name": "ERC20InvalidSender",
            "inputs": [
                {
                    "name": "sender",
                    "type": "address",
                    "internalType": "address"
                }
            ]
        },
        {
            "type": "error",
            "name": "ERC20InvalidSpender",
            "inputs": [
                {
                    "name": "spender",
                    "type": "address",
                    "internalType": "address"
                }
            ]
        },
        {
            "type": "error",
            "name": "EnforcedPause",
            "inputs": []
        },
        {
            "type": "error",
            "name": "ExpectedPause",
            "inputs": []
        },
        {
            "type": "error",
            "name": "OnlyMinter",
            "inputs": []
        },
        {
            "type": "error",
            "name": "ZeroAddress",
            "inputs": []
        }
    ],
    "bytecode": {
        "object": "0x6080604052346103ad57604051601f61162538819003918201601f19168301916001600160401b038311848410176102b3578084926020946040528339810103126103ad57516001600160a01b038116908181036103ad5761005f6103b1565b916100686103b1565b83519092906001600160401b0381116102b357600354600181811c911680156103a3575b602082101461029557601f8111610335575b50602094601f82116001146102d2579481929394955f926102c7575b50508160011b915f199060031b1c1916176003555b82516001600160401b0381116102b357600454600181811c911680156102a9575b602082101461029557601f8111610227575b506020601f82116001146101c457819293945f926101b9575b50508160011b915f199060031b1c1916176004555b81156101aa5761017490610143336103e1565b5061014d33610457565b5060068054610100600160a81b031916600883901b610100600160a81b03161790556104ea565b50604051905f7f1cf2de25c5bf439ac0287061c3a0fa69b3b02867d0ccfd2ded34e42577050b738180a3611027908161057e8239f35b63d92e233d60e01b5f5260045ffd5b015190505f8061011b565b601f1982169060045f52805f20915f5b81811061020f575095836001959697106101f7575b505050811b01600455610130565b01515f1960f88460031b161c191690555f80806101e9565b9192602060018192868b0151815501940192016101d4565b818111156101025760045f52601f820160051c7f8a35acfbc15ff81a39ae7d344fd709f28e8600b4aa8c65c6b64bfe7fe36bd19b6020841061028d575b81601f9101920160051c03905f5b828110610280575050610102565b5f82820155600101610272565b5f9150610264565b634e487b7160e01b5f52602260045260245ffd5b90607f16906100f0565b634e487b7160e01b5f52604160045260245ffd5b015190505f806100ba565b601f1982169560035f52805f20915f5b88811061031d57508360019596979810610305575b505050811b016003556100cf565b01515f1960f88460031b161c191690555f80806102f7565b919260206001819286850151815501940192016102e2565b8181111561009e5760035f52601f820160051c7fc2575a0e9e593c00f959f8c92f12db2869c3395a3b0502d05e2516446f71f85b6020841061039b575b81601f9101920160051c03905f5b82811061038e57505061009e565b5f82820155600101610380565b5f9150610372565b90607f169061008c565b5f80fd5b60408051919082016001600160401b038111838210176102b35760405260048252634b36313360e01b6020830152565b6001600160a01b0381165f9081525f5160206115e55f395f51905f52602052604090205460ff16610452576001600160a01b03165f8181525f5160206115e55f395f51905f5260205260408120805460ff191660011790553391905f5160206115a55f395f51905f528180a4600190565b505f90565b6001600160a01b0381165f9081525f5160206116055f395f51905f52602052604090205460ff16610452576001600160a01b03165f8181525f5160206116055f395f51905f5260205260408120805460ff191660011790553391907f65d7a28e3265b37a6474929f336521b332c1681b933f6cb9f3376673440d862a905f5160206115a55f395f51905f529080a4600190565b6001600160a01b0381165f9081525f5160206115c55f395f51905f52602052604090205460ff16610452576001600160a01b03165f8181525f5160206115c55f395f51905f5260205260408120805460ff191660011790553391907f9f2df0fed2c77648de5860a4cc508cd0818c85b8b8a1ab4ceeef8d981c8956a6905f5160206115a55f395f51905f529080a460019056fe6080806040526004361015610012575f80fd5b5f3560e01c90816301ffc9a714610ac35750806306fdde03146109f157806307546172146109c5578063095ea7b31461091d57806318160ddd1461090057806323b872dd146108c8578063248a9ca3146108955780632f2ff15d14610857578063313ce5671461083c57806336568abe146107f85780633f4ba83a1461079257806340c10f19146106c25780635c975abb146106a057806370a082311461066957806379cc6790146105415780638456cb59146104e857806391d148541461049f57806395d89b4114610384578063a217fddf1461036a578063a9059cbb14610339578063d5391393146102ff578063d547741f146102bc578063dd62ed3e1461026c578063e63ab1e9146102325763fca3b5aa1461012f575f80fd5b3461022e57602036600319011261022e57610148610b40565b335f9081527f05b8ccbb9d4d8fb16ea74ce3c29a41f1b461fbdaff4714a0d9a8eb05499746bc602052604090205460ff1615610217576001600160a01b0381169081156102085760065461020692906101ac9060081c6001600160a01b0316610e8e565b5060065490600882901c6001600160a01b03167f1cf2de25c5bf439ac0287061c3a0fa69b3b02867d0ccfd2ded34e42577050b735f80a3610100600160a81b031916600882901b610100600160a81b031617600655610d57565b005b63d92e233d60e01b5f5260045ffd5b63e2517d3f60e01b5f52336004525f60245260445ffd5b5f80fd5b3461022e575f36600319011261022e5760206040517f65d7a28e3265b37a6474929f336521b332c1681b933f6cb9f3376673440d862a8152f35b3461022e57604036600319011261022e57610285610b40565b61028d610b56565b6001600160a01b039182165f908152600160209081526040808320949093168252928352819020549051908152f35b3461022e57604036600319011261022e576102066004356102db610b56565b906102fa6102f5825f526005602052600160405f20015490565b610d1d565b610f32565b3461022e575f36600319011261022e5760206040517f9f2df0fed2c77648de5860a4cc508cd0818c85b8b8a1ab4ceeef8d981c8956a68152f35b3461022e57604036600319011261022e5761035f610355610b40565b6024359033610c0f565b602060405160018152f35b3461022e575f36600319011261022e5760206040515f8152f35b3461022e575f36600319011261022e576040515f6004548060011c90600181168015610495575b602083108114610481578285529081156104655750600114610410575b50819003601f01601f191681019067ffffffffffffffff8211818310176103fc576103f882918260405282610b16565b0390f35b634e487b7160e01b5f52604160045260245ffd5b905060045f527f8a35acfbc15ff81a39ae7d344fd709f28e8600b4aa8c65c6b64bfe7fe36bd19b5f905b82821061044f575060209150820101826103c8565b600181602092548385880101520191019061043a565b90506020925060ff191682840152151560051b820101826103c8565b634e487b7160e01b5f52602260045260245ffd5b91607f16916103ab565b3461022e57604036600319011261022e576104b8610b56565b6004355f52600560205260405f209060018060a01b03165f52602052602060ff60405f2054166040519015158152f35b3461022e575f36600319011261022e57610500610cae565b610508610fb6565b600160ff1960065416176006557f62e78cea01bee320cd4e420270b5ea74000d11b0c9f74754ebdbfc544b05a2586020604051338152a1005b3461022e57604036600319011261022e5761055a610b40565b335f9081525f516020610fd25f395f51905f526020526040902054602435919060ff161561065a576001600160a01b0381165f818152600160209081526040808320338452909152902054909190831161064b57826105ba913390610b6c565b8015610638576105c8610fb6565b805f525f60205260405f205482811061061f576020835f947fddf252ad1be2c89b69c2b068fc378daa952ba7f163c4a11628f55a4df523b3ef938587528684520360408620558060025403600255604051908152a3005b9063391434e360e21b5f5260045260245260445260645ffd5b634b637e8f60e11b5f525f60045260245ffd5b631c57b09b60e21b5f5260045ffd5b639cdc2ed560e01b5f5260045ffd5b3461022e57602036600319011261022e576001600160a01b0361068a610b40565b165f525f602052602060405f2054604051908152f35b3461022e575f36600319011261022e57602060ff600654166040519015158152f35b3461022e57604036600319011261022e576106db610b40565b335f9081525f516020610fd25f395f51905f526020526040902054602435919060ff161561065a576001600160a01b031690811561077f5761071b610fb6565b6002549080820180921161076b5760207fddf252ad1be2c89b69c2b068fc378daa952ba7f163c4a11628f55a4df523b3ef915f9360025584845283825260408420818154019055604051908152a3005b634e487b7160e01b5f52601160045260245ffd5b63ec442f0560e01b5f525f60045260245ffd5b3461022e575f36600319011261022e576107aa610cae565b60065460ff8116156107e95760ff19166006557f5db9ee0a495bf2e6ff9c91a7834c1ba4fdd244a5e8aa4e537bd38aeae4b073aa6020604051338152a1005b638dfc202b60e01b5f5260045ffd5b3461022e57604036600319011261022e57610811610b56565b336001600160a01b0382160361082d5761020690600435610f32565b63334bd91960e11b5f5260045ffd5b3461022e575f36600319011261022e57602060405160128152f35b3461022e57604036600319011261022e57610206600435610876610b56565b906108906102f5825f526005602052600160405f20015490565b610e02565b3461022e57602036600319011261022e5760206108c06004355f526005602052600160405f20015490565b604051908152f35b3461022e57606036600319011261022e5761035f6108e4610b40565b6108ec610b56565b604435916108fb833383610b6c565b610c0f565b3461022e575f36600319011261022e576020600254604051908152f35b3461022e57604036600319011261022e57610936610b40565b6024359033156109b2576001600160a01b031690811561099f57335f52600160205260405f20825f526020528060405f20556040519081527f8c5be1e5ebec7d5bd14f71427d1e84f3dd0314c0f7b2291e5b200ac8c7c3b92560203392a3602060405160018152f35b634a1406b160e11b5f525f60045260245ffd5b63e602df0560e01b5f525f60045260245ffd5b3461022e575f36600319011261022e5760065460405160089190911c6001600160a01b03168152602090f35b3461022e575f36600319011261022e576040515f6003548060011c90600181168015610ab9575b602083108114610481578285529081156104655750600114610a645750819003601f01601f191681019067ffffffffffffffff8211818310176103fc576103f882918260405282610b16565b905060035f527fc2575a0e9e593c00f959f8c92f12db2869c3395a3b0502d05e2516446f71f85b5f905b828210610aa3575060209150820101826103c8565b6001816020925483858801015201910190610a8e565b91607f1691610a18565b3461022e57602036600319011261022e576004359063ffffffff60e01b821680920361022e57602091637965db0b60e01b8114908115610b05575b5015158152f35b6301ffc9a760e01b14905083610afe565b602060409281835280519182918282860152018484015e5f828201840152601f01601f1916010190565b600435906001600160a01b038216820361022e57565b602435906001600160a01b038216820361022e57565b6001600160a01b039081165f818152600160209081526040808320948616835293905291909120549291905f198410610ba6575b50505050565b828410610bec5780156109b2576001600160a01b0382161561099f575f52600160205260405f209060018060a01b03165f5260205260405f20910390555f808080610ba0565b508290637dc7a0d960e11b5f5260018060a01b031660045260245260445260645ffd5b6001600160a01b0316908115610638576001600160a01b031691821561077f57610c37610fb6565b815f525f60205260405f2054818110610c9557817fddf252ad1be2c89b69c2b068fc378daa952ba7f163c4a11628f55a4df523b3ef92602092855f525f84520360405f2055845f525f825260405f20818154019055604051908152a3565b8263391434e360e21b5f5260045260245260445260645ffd5b335f9081527f99f2891db7a8db76249871a02b43b68c0bb8f22ef8a3bc1034ae9375ef6b7c3c602052604090205460ff1615610ce657565b63e2517d3f60e01b5f52336004527f65d7a28e3265b37a6474929f336521b332c1681b933f6cb9f3376673440d862a60245260445ffd5b5f81815260056020908152604080832033845290915290205460ff1615610d415750565b63e2517d3f60e01b5f523360045260245260445ffd5b6001600160a01b0381165f9081525f516020610fd25f395f51905f52602052604090205460ff16610dfd576001600160a01b03165f8181525f516020610fd25f395f51905f5260205260408120805460ff191660011790553391907f9f2df0fed2c77648de5860a4cc508cd0818c85b8b8a1ab4ceeef8d981c8956a6907f2f8788117e7eff1d82e926ec794901d17c78024a50270940304540a733656f0d9080a4600190565b505f90565b5f8181526005602090815260408083206001600160a01b038616845290915290205460ff16610e88575f8181526005602090815260408083206001600160a01b0395909516808452949091528120805460ff19166001179055339291907f2f8788117e7eff1d82e926ec794901d17c78024a50270940304540a733656f0d9080a4600190565b50505f90565b6001600160a01b0381165f9081525f516020610fd25f395f51905f52602052604090205460ff1615610dfd576001600160a01b03165f8181525f516020610fd25f395f51905f5260205260408120805460ff191690553391907f9f2df0fed2c77648de5860a4cc508cd0818c85b8b8a1ab4ceeef8d981c8956a6907ff6391f5c32d9c69d2a47ea670b442974b53935d1edc7fd64eb21e047a839171b9080a4600190565b5f8181526005602090815260408083206001600160a01b038616845290915290205460ff1615610e88575f8181526005602090815260408083206001600160a01b0395909516808452949091528120805460ff19169055339291907ff6391f5c32d9c69d2a47ea670b442974b53935d1edc7fd64eb21e047a839171b9080a4600190565b60ff60065416610fc257565b63d93c066560e01b5f5260045ffdfe15a28d26fa1bf736cf7edc9922607171ccb09c3c73b808e7772a3013e068a522a2646970667358221220a15c83d6ce730e4f832e58848e92d3f1aa99a7f03bcef3664dd2e2ea7acf608664736f6c634300082200332f8788117e7eff1d82e926ec794901d17c78024a50270940304540a733656f0d15a28d26fa1bf736cf7edc9922607171ccb09c3c73b808e7772a3013e068a52205b8ccbb9d4d8fb16ea74ce3c29a41f1b461fbdaff4714a0d9a8eb05499746bc99f2891db7a8db76249871a02b43b68c0bb8f22ef8a3bc1034ae9375ef6b7c3c",
        "linkReferences": {}
    },
    "methodIdentifiers": {
        "DEFAULT_ADMIN_ROLE()": "a217fddf",
        "MINTER_ROLE()": "d5391393",
        "PAUSER_ROLE()": "e63ab1e9",
        "allowance(address,address)": "dd62ed3e",
        "approve(address,uint256)": "095ea7b3",
        "balanceOf(address)": "70a08231",
        "burnFrom(address,uint256)": "79cc6790",
        "decimals()": "313ce567",
        "getRoleAdmin(bytes32)": "248a9ca3",
        "grantRole(bytes32,address)": "2f2ff15d",
        "hasRole(bytes32,address)": "91d14854",
        "mint(address,uint256)": "40c10f19",
        "minter()": "07546172",
        "name()": "06fdde03",
        "pause()": "8456cb59",
        "paused()": "5c975abb",
        "renounceRole(bytes32,address)": "36568abe",
        "revokeRole(bytes32,address)": "d547741f",
        "setMinter(address)": "fca3b5aa",
        "supportsInterface(bytes4)": "01ffc9a7",
        "symbol()": "95d89b41",
        "totalSupply()": "18160ddd",
        "transfer(address,uint256)": "a9059cbb",
        "transferFrom(address,address,uint256)": "23b872dd",
        "unpause()": "3f4ba83a"
    },
    "id": 77
}