{
    "abi": [
        {
            "type": "constructor",
            "inputs": [
                {
                    "name": "stakingToken_",
                    "type": "address",
                    "internalType": "address"
                },
                {
                    "name": "rewardToken_",
                    "type": "address",
                    "internalType": "address"
                },
                {
                    "name": "k613_",
                    "type": "address",
                    "internalType": "address"
                },
                {
                    "name": "epochDuration_",
                    "type": "uint256",
                    "internalType": "uint256"
                }
            ],
            "stateMutability": "nonpayable"
        },
        {
            "type": "function",
            "name": "DEFAULT_ADMIN_ROLE",
            "inputs": [],
            "outputs": [
                {
                    "name": "",
                    "type": "bytes32",
                    "internalType": "bytes32"
                }
            ],
            "stateMutability": "view"
        },
        {
            "type": "function",
            "name": "MIN_INITIAL_DEPOSIT",
            "inputs": [],
            "outputs": [
                {
                    "name": "",
                    "type": "uint256",
                    "internalType": "uint256"
                }
            ],
            "stateMutability": "view"
        },
        {
            "type": "function",
            "name": "MIN_NOTIFY",
            "inputs": [],
            "outputs": [
                {
                    "name": "",
                    "type": "uint256",
                    "internalType": "uint256"
                }
            ],
            "stateMutability": "view"
        },
        {
            "type": "function",
            "name": "MIN_PENALTY_FLUSH",
            "inputs": [],
            "outputs": [
                {
                    "name": "",
                    "type": "uint256",
                    "internalType": "uint256"
                }
            ],
            "stateMutability": "view"
        },
        {
            "type": "function",
            "name": "PAUSER_ROLE",
            "inputs": [],
            "outputs": [
                {
                    "name": "",
                    "type": "bytes32",
                    "internalType": "bytes32"
                }
            ],
            "stateMutability": "view"
        },
        {
            "type": "function",
            "name": "REWARDS_NOTIFIER_ROLE",
            "inputs": [],
            "outputs": [
                {
                    "name": "",
                    "type": "bytes32",
                    "internalType": "bytes32"
                }
            ],
            "stateMutability": "view"
        },
        {
            "type": "function",
            "name": "accRewardPerShare",
            "inputs": [],
            "outputs": [
                {
                    "name": "",
                    "type": "uint256",
                    "internalType": "uint256"
                }
            ],
            "stateMutability": "view"
        },
        {
            "type": "function",
            "name": "addPendingPenalty",
            "inputs": [
                {
                    "name": "amount",
                    "type": "uint256",
                    "internalType": "uint256"
                }
            ],
            "outputs": [],
            "stateMutability": "nonpayable"
        },
        {
            "type": "function",
            "name": "advanceEpoch",
            "inputs": [],
            "outputs": [],
            "stateMutability": "nonpayable"
        },
        {
            "type": "function",
            "name": "balanceOf",
            "inputs": [
                {
                    "name": "",
                    "type": "address",
                    "internalType": "address"
                }
            ],
            "outputs": [
                {
                    "name": "",
                    "type": "uint256",
                    "internalType": "uint256"
                }
            ],
            "stateMutability": "view"
        },
        {
            "type": "function",
            "name": "claim",
            "inputs": [],
            "outputs": [],
            "stateMutability": "nonpayable"
        },
        {
            "type": "function",
            "name": "deposit",
            "inputs": [
                {
                    "name": "amount",
                    "type": "uint256",
                    "internalType": "uint256"
                }
            ],
            "outputs": [],
            "stateMutability": "nonpayable"
        },
        {
            "type": "function",
            "name": "epochDuration",
            "inputs": [],
            "outputs": [
                {
                    "name": "",
                    "type": "uint256",
                    "internalType": "uint256"
                }
            ],
            "stateMutability": "view"
        },
        {
            "type": "function",
            "name": "getRoleAdmin",
            "inputs": [
                {
                    "name": "role",
                    "type": "bytes32",
                    "internalType": "bytes32"
                }
            ],
            "outputs": [
                {
                    "name": "",
                    "type": "bytes32",
                    "internalType": "bytes32"
                }
            ],
            "stateMutability": "view"
        },
        {
            "type": "function",
            "name": "grantRole",
            "inputs": [
                {
                    "name": "role",
                    "type": "bytes32",
                    "internalType": "bytes32"
                },
                {
                    "name": "account",
                    "type": "address",
                    "internalType": "address"
                }
            ],
            "outputs": [],
            "stateMutability": "nonpayable"
        },
        {
            "type": "function",
            "name": "hasRole",
            "inputs": [
                {
                    "name": "role",
                    "type": "bytes32",
                    "internalType": "bytes32"
                },
                {
                    "name": "account",
                    "type": "address",
                    "internalType": "address"
                }
            ],
            "outputs": [
                {
                    "name": "",
                    "type": "bool",
                    "internalType": "bool"
                }
            ],
            "stateMutability": "view"
        },
        {
            "type": "function",
            "name": "k613",
            "inputs": [],
            "outputs": [
                {
                    "name": "",
                    "type": "address",
                    "internalType": "contract IERC20"
                }
            ],
            "stateMutability": "view"
        },
        {
            "type": "function",
            "name": "lastEpochFlushAt",
            "inputs": [],
            "outputs": [
                {
                    "name": "",
                    "type": "uint256",
                    "internalType": "uint256"
                }
            ],
            "stateMutability": "view"
        },
        {
            "type": "function",
            "name": "nextEpochAt",
            "inputs": [],
            "outputs": [
                {
                    "name": "",
                    "type": "uint256",
                    "internalType": "uint256"
                }
            ],
            "stateMutability": "view"
        },
        {
            "type": "function",
            "name": "notifyReward",
            "inputs": [
                {
                    "name": "amount",
                    "type": "uint256",
                    "internalType": "uint256"
                }
            ],
            "outputs": [],
            "stateMutability": "nonpayable"
        },
        {
            "type": "function",
            "name": "pause",
            "inputs": [],
            "outputs": [],
            "stateMutability": "nonpayable"
        },
        {
            "type": "function",
            "name": "paused",
            "inputs": [],
            "outputs": [
                {
                    "name": "",
                    "type": "bool",
                    "internalType": "bool"
                }
            ],
            "stateMutability": "view"
        },
        {
            "type": "function",
            "name": "pendingPenalties",
            "inputs": [],
            "outputs": [
                {
                    "name": "",
                    "type": "uint256",
                    "internalType": "uint256"
                }
            ],
            "stateMutability": "view"
        },
        {
            "type": "function",
            "name": "pendingRewards",
            "inputs": [],
            "outputs": [
                {
                    "name": "",
                    "type": "uint256",
                    "internalType": "uint256"
                }
            ],
            "stateMutability": "view"
        },
        {
            "type": "function",
            "name": "pendingRewardsOf",
            "inputs": [
                {
                    "name": "account",
                    "type": "address",
                    "internalType": "address"
                }
            ],
            "outputs": [
                {
                    "name": "",
                    "type": "uint256",
                    "internalType": "uint256"
                }
            ],
            "stateMutability": "view"
        },
        {
            "type": "function",
            "name": "renounceRole",
            "inputs": [
                {
                    "name": "role",
                    "type": "bytes32",
                    "internalType": "bytes32"
                },
                {
                    "name": "callerConfirmation",
                    "type": "address",
                    "internalType": "address"
                }
            ],
            "outputs": [],
            "stateMutability": "nonpayable"
        },
        {
            "type": "function",
            "name": "revokeRole",
            "inputs": [
                {
                    "name": "role",
                    "type": "bytes32",
                    "internalType": "bytes32"
                },
                {
                    "name": "account",
                    "type": "address",
                    "internalType": "address"
                }
            ],
            "outputs": [],
            "stateMutability": "nonpayable"
        },
        {
            "type": "function",
            "name": "rewardToken",
            "inputs": [],
            "outputs": [
                {
                    "name": "",
                    "type": "address",
                    "internalType": "contract IERC20"
                }
            ],
            "stateMutability": "view"
        },
        {
            "type": "function",
            "name": "setStaking",
            "inputs": [
                {
                    "name": "staking_",
                    "type": "address",
                    "internalType": "address"
                }
            ],
            "outputs": [],
            "stateMutability": "nonpayable"
        },
        {
            "type": "function",
            "name": "staking",
            "inputs": [],
            "outputs": [
                {
                    "name": "",
                    "type": "address",
                    "internalType": "address"
                }
            ],
            "stateMutability": "view"
        },
        {
            "type": "function",
            "name": "stakingToken",
            "inputs": [],
            "outputs": [
                {
                    "name": "",
                    "type": "address",
                    "internalType": "contract IERC20"
                }
            ],
            "stateMutability": "view"
        },
        {
            "type": "function",
            "name": "supportsInterface",
            "inputs": [
                {
                    "name": "interfaceId",
                    "type": "bytes4",
                    "internalType": "bytes4"
                }
            ],
            "outputs": [
                {
                    "name": "",
                    "type": "bool",
                    "internalType": "bool"
                }
            ],
            "stateMutability": "view"
        },
        {
            "type": "function",
            "name": "totalDeposits",
            "inputs": [],
            "outputs": [
                {
                    "name": "",
                    "type": "uint256",
                    "internalType": "uint256"
                }
            ],
            "stateMutability": "view"
        },
        {
            "type": "function",
            "name": "unpause",
            "inputs": [],
            "outputs": [],
            "stateMutability": "nonpayable"
        },
        {
            "type": "function",
            "name": "userPendingRewards",
            "inputs": [
                {
                    "name": "",
                    "type": "address",
                    "internalType": "address"
                }
            ],
            "outputs": [
                {
                    "name": "",
                    "type": "uint256",
                    "internalType": "uint256"
                }
            ],
            "stateMutability": "view"
        },
        {
            "type": "function",
            "name": "userRewardDebt",
            "inputs": [
                {
                    "name": "",
                    "type": "address",
                    "internalType": "address"
                }
            ],
            "outputs": [
                {
                    "name": "",
                    "type": "uint256",
                    "internalType": "uint256"
                }
            ],
            "stateMutability": "view"
        },
        {
            "type": "function",
            "name": "withdraw",
            "inputs": [
                {
                    "name": "amount",
                    "type": "uint256",
                    "internalType": "uint256"
                }
            ],
            "outputs": [],
            "stateMutability": "nonpayable"
        },
        {
            "type": "event",
            "name": "Claimed",
            "inputs": [
                {
                    "name": "account",
                    "type": "address",
                    "indexed": true,
                    "internalType": "address"
                },
                {
                    "name": "amount",
                    "type": "uint256",
                    "indexed": false,
                    "internalType": "uint256"
                }
            ],
            "anonymous": false
        },
        {
            "type": "event",
            "name": "Deposited",
            "inputs": [
                {
                    "name": "account",
                    "type": "address",
                    "indexed": true,
                    "internalType": "address"
                },
                {
                    "name": "amount",
                    "type": "uint256",
                    "indexed": false,
                    "internalType": "uint256"
                }
            ],
            "anonymous": false
        },
        {
            "type": "event",
            "name": "EpochAdvanced",
            "inputs": [
                {
                    "name": "timestamp",
                    "type": "uint256",
                    "indexed": false,
                    "internalType": "uint256"
                }
            ],
            "anonymous": false
        },
        {
            "type": "event",
            "name": "Paused",
            "inputs": [
                {
                    "name": "account",
                    "type": "address",
                    "indexed": false,
                    "internalType": "address"
                }
            ],
            "anonymous": false
        },
        {
            "type": "event",
            "name": "PenaltyAdded",
            "inputs": [
                {
                    "name": "amount",
                    "type": "uint256",
                    "indexed": false,
                    "internalType": "uint256"
                }
            ],
            "anonymous": false
        },
        {
            "type": "event",
            "name": "RewardNotified",
            "inputs": [
                {
                    "name": "amount",
                    "type": "uint256",
                    "indexed": false,
                    "internalType": "uint256"
                }
            ],
            "anonymous": false
        },
        {
            "type": "event",
            "name": "RewardQueued",
            "inputs": [
                {
                    "name": "amount",
                    "type": "uint256",
                    "indexed": false,
                    "internalType": "uint256"
                }
            ],
            "anonymous": false
        },
        {
            "type": "event",
            "name": "RoleAdminChanged",
            "inputs": [
                {
                    "name": "role",
                    "type": "bytes32",
                    "indexed": true,
                    "internalType": "bytes32"
                },
                {
                    "name": "previousAdminRole",
                    "type": "bytes32",
                    "indexed": true,
                    "internalType": "bytes32"
                },
                {
                    "name": "newAdminRole",
                    "type": "bytes32",
                    "indexed": true,
                    "internalType": "bytes32"
                }
            ],
            "anonymous": false
        },
        {
            "type": "event",
            "name": "RoleGranted",
            "inputs": [
                {
                    "name": "role",
                    "type": "bytes32",
                    "indexed": true,
                    "internalType": "bytes32"
                },
                {
                    "name": "account",
                    "type": "address",
                    "indexed": true,
                    "internalType": "address"
                },
                {
                    "name": "sender",
                    "type": "address",
                    "indexed": true,
                    "internalType": "address"
                }
            ],
            "anonymous": false
        },
        {
            "type": "event",
            "name": "RoleRevoked",
            "inputs": [
                {
                    "name": "role",
                    "type": "bytes32",
                    "indexed": true,
                    "internalType": "bytes32"
                },
                {
                    "name": "account",
                    "type": "address",
                    "indexed": true,
                    "internalType": "address"
                },
                {
                    "name": "sender",
                    "type": "address",
                    "indexed": true,
                    "internalType": "address"
                }
            ],
            "anonymous": false
        },
        {
            "type": "event",
            "name": "StakingUpdated",
            "inputs": [
                {
                    "name": "staking",
                    "type": "address",
                    "indexed": true,
                    "internalType": "address"
                }
            ],
            "anonymous": false
        },
        {
            "type": "event",
            "name": "Unpaused",
            "inputs": [
                {
                    "name": "account",
                    "type": "address",
                    "indexed": false,
                    "internalType": "address"
                }
            ],
            "anonymous": false
        },
        {
            "type": "event",
            "name": "Withdrawn",
            "inputs": [
                {
                    "name": "account",
                    "type": "address",
                    "indexed": true,
                    "internalType": "address"
                },
                {
                    "name": "amount",
                    "type": "uint256",
                    "indexed": false,
                    "internalType": "uint256"
                }
            ],
            "anonymous": false
        },
        {
            "type": "error",
            "name": "AccessControlBadConfirmation",
            "inputs": []
        },
        {
            "type": "error",
            "name": "AccessControlUnauthorizedAccount",
            "inputs": [
                {
                    "name": "account",
                    "type": "address",
                    "internalType": "address"
                },
                {
                    "name": "neededRole",
                    "type": "bytes32",
                    "internalType": "bytes32"
                }
            ]
        },
        {
            "type": "error",
            "name": "EnforcedPause",
            "inputs": []
        },
        {
            "type": "error",
            "name": "EpochNotReady",
            "inputs": []
        },
        {
            "type": "error",
            "name": "ExitVestingActive",
            "inputs": []
        },
        {
            "type": "error",
            "name": "ExpectedPause",
            "inputs": []
        },
        {
            "type": "error",
            "name": "InsufficientBalance",
            "inputs": []
        },
        {
            "type": "error",
            "name": "InvalidEpochDuration",
            "inputs": []
        },
        {
            "type": "error",
            "name": "MinimumInitialDeposit",
            "inputs": []
        },
        {
            "type": "error",
            "name": "MinimumNotify",
            "inputs": []
        },
        {
            "type": "error",
            "name": "NoRewards",
            "inputs": []
        },
        {
            "type": "error",
            "name": "ReentrancyGuardReentrantCall",
            "inputs": []
        },
        {
            "type": "error",
            "name": "SafeERC20FailedOperation",
            "inputs": [
                {
                    "name": "token",
                    "type": "address",
                    "internalType": "address"
                }
            ]
        },
        {
            "type": "error",
            "name": "ZeroAddress",
            "inputs": []
        },
        {
            "type": "error",
            "name": "ZeroAmount",
            "inputs": []
        }
    ],
    "bytecode": {
        "object": "0x6101003461018957601f611d7d38819003918201601f19168301916001600160401b0383118484101761018d5780849260809460405283398101031261018957610048816101a1565b90610055602082016101a1565b6060610063604084016101a1565b92015160017f9b779b17422d0df92223018b32b4d1fa46e071723d6817e2486d003becc55f0055926001600160a01b031680158015610178575b8015610167575b610158578315610149576100b7336101b5565b506100c13361022b565b506080526001600160a01b0390811660a0521660c05260e05242600255604051611a5e90816102bf82396080518181816103b5015281816107940152610ce6015260a05181818161020401526108ff015260c05181818161073301526115ee015260e0518181816102a40152818161086801528181610b0d01528181610ea301526117700152f35b6368f5f8f160e11b5f5260045ffd5b63d92e233d60e01b5f5260045ffd5b506001600160a01b038316156100a4565b506001600160a01b0382161561009d565b5f80fd5b634e487b7160e01b5f52604160045260245ffd5b51906001600160a01b038216820361018957565b6001600160a01b0381165f9081525f516020611d5d5f395f51905f52602052604090205460ff16610226576001600160a01b03165f8181525f516020611d5d5f395f51905f5260205260408120805460ff191660011790553391905f516020611d1d5f395f51905f528180a4600190565b505f90565b6001600160a01b0381165f9081525f516020611d3d5f395f51905f52602052604090205460ff16610226576001600160a01b03165f8181525f516020611d3d5f395f51905f5260205260408120805460ff191660011790553391907f65d7a28e3265b37a6474929f336521b332c1681b933f6cb9f3376673440d862a905f516020611d1d5f395f51905f529080a460019056fe6080806040526004361015610012575f80fd5b5f3560e01c90816301ffc9a714610d8257508063248a9ca314610d585780632ad876e0146103155780632e1a7d4d14610c415780632f2ff15d14610c0457806336568abe14610bc05780633988bad814610b9d5780633cf80e6c14610add5780633f4ba83a14610a77578063497a04e014610a555780634bf6f9e714610a1d5780634cf088d9146109f55780634e71d92d1461088b5780634ff0876a146108515780635c975abb1461082f57806360993b5b146107fb57806370a08231146107c357806372f702f31461077f5780637d8820971461076257806383767b781461071e5780638456cb59146106c6578063894234061461067f5780638aef97ce146106625780638deb8fc8146106455780638ff390991461056057806391d1485414610518578063939d6237146104fb578063a217fddf146104e1578063a750e694146104ba578063b6b55f251461031a578063c7c11f3e14610315578063d547741f146102d1578063da566df61461028a578063e63ab1e914610250578063eded3fda14610233578063f7c618c1146101ef5763fc9d7711146101b3575f80fd5b346101eb5760203660031901126101eb576001600160a01b036101d4610e0a565b165f526009602052602060405f2054604051908152f35b5f80fd5b346101eb575f3660031901126101eb576040517f00000000000000000000000000000000000000000000000000000000000000006001600160a01b03168152602090f35b346101eb575f3660031901126101eb576020600454604051908152f35b346101eb575f3660031901126101eb5760206040517f65d7a28e3265b37a6474929f336521b332c1681b933f6cb9f3376673440d862a8152f35b346101eb575f3660031901126101eb5760206102c96002547f000000000000000000000000000000000000000000000000000000000000000090610e72565b604051908152f35b346101eb5760403660031901126101eb576103136004356102f0610df4565b9061030e610309825f525f602052600160405f20015490565b61135e565b611547565b005b610dd5565b346101eb5760203660031901126101eb57600435610336611164565b61033e61119c565b80156104ab57600654158061049d575b61048e5761035b336111b7565b335f52600760205260405f20610372828254610e72565b905561038081600654610e72565b600655335f526007602052670de0b6b3a76400006103a560405f205460035490610e41565b04335f52600860205260405f20557f000000000000000000000000000000000000000000000000000000000000000090604051916323b872dd60e01b5f5233600452306024528160445260205f60648180855af160015f511481161561046f575b836040525f6060521561044f575081527f2da466a7b24304f47e87fa2e1e5a81b9831ce54fec19055ce277ca2f39ba42c460203392a260015f516020611a095f395f51905f5255005b635274afe760e01b5f9081526001600160a01b0391909116600452602490fd5b600181151661048557813b15153d151616610406565b833d5f823e3d90fd5b63183664bb60e11b5f5260045ffd5b5064e8d4a51000811061034e565b631f2a200560e01b5f5260045ffd5b346101eb575f3660031901126101eb5760206040515f5160206119c95f395f51905f528152f35b346101eb575f3660031901126101eb5760206040515f8152f35b346101eb575f3660031901126101eb576020600354604051908152f35b346101eb5760403660031901126101eb57610531610df4565b6004355f525f60205260405f209060018060a01b03165f52602052602060ff60405f2054166040519015158152f35b346101eb5760203660031901126101eb57610579610e0a565b335f9081527fad3228b676f7d3cd4284a5443f17f1962b36e491b30a40b2405849e597ba5fb5602052604090205460ff161561062e57600a546001600160a01b03168061061e575b50600a80546001600160a01b0319166001600160a01b038316908117909155908161060e575b507fe189a719dae2bf18df1013cfa028ecce01f9fafdbd456a862fa18e6d0143e3c25f80a2005b61061790611396565b50816105e7565b610627906114b6565b50816105c1565b63e2517d3f60e01b5f52336004525f60245260445ffd5b346101eb575f3660031901126101eb576020600554604051908152f35b346101eb575f3660031901126101eb576020600254604051908152f35b346101eb5760203660031901126101eb57610698611164565b6106a0611315565b6106a861119c565b6106b360043561111f565b60015f516020611a095f395f51905f5255005b346101eb575f3660031901126101eb576106de6112a6565b6106e661119c565b600160ff19815416176001557f62e78cea01bee320cd4e420270b5ea74000d11b0c9f74754ebdbfc544b05a2586020604051338152a1005b346101eb575f3660031901126101eb576040517f00000000000000000000000000000000000000000000000000000000000000006001600160a01b03168152602090f35b346101eb575f3660031901126101eb576020600654604051908152f35b346101eb575f3660031901126101eb576040517f00000000000000000000000000000000000000000000000000000000000000006001600160a01b03168152602090f35b346101eb5760203660031901126101eb576001600160a01b036107e4610e0a565b165f526007602052602060405f2054604051908152f35b346101eb5760203660031901126101eb57610814611164565b61081c611315565b61082461119c565b6106b3600435611055565b346101eb575f3660031901126101eb57602060ff600154166040519015158152f35b346101eb575f3660031901126101eb5760206040517f00000000000000000000000000000000000000000000000000000000000000008152f35b346101eb575f3660031901126101eb576108a3611164565b6108ab61119c565b600a546001600160a01b03168015159081610980575b50610971576108cf336111b7565b335f52600960205260405f2054801561096257335f5260096020525f60408120556108f86115c7565b61092381337f0000000000000000000000000000000000000000000000000000000000000000611245565b6040519081527fd8138f8a3f377c5259ca548e70e4c2de94f129f5a11036a15b69513cba2b426a60203392a260015f516020611a095f395f51905f5255005b630fec21fd60e21b5f5260045ffd5b63c75b777160e01b5f5260045ffd5b60405163ce1e392160e01b81523360048201529150602090829060249082905afa9081156109ea575f916109b8575b501515816108c1565b90506020813d6020116109e2575b816109d36020938361101f565b810103126101eb5751816109af565b3d91506109c6565b6040513d5f823e3d90fd5b346101eb575f3660031901126101eb57600a546040516001600160a01b039091168152602090f35b346101eb5760203660031901126101eb576001600160a01b03610a3e610e0a565b165f526008602052602060405f2054604051908152f35b346101eb575f3660031901126101eb576020604051670de0b6b3a76400008152f35b346101eb575f3660031901126101eb57610a8f6112a6565b60015460ff811615610ace5760ff19166001557f5db9ee0a495bf2e6ff9c91a7834c1ba4fdd244a5e8aa4e537bd38aeae4b073aa6020604051338152a1005b638dfc202b60e01b5f5260045ffd5b346101eb575f3660031901126101eb57610af5611164565b610afd61119c565b610b056115c7565b610b326002547f000000000000000000000000000000000000000000000000000000000000000090610e72565b4210610b8e57600654610b81575b426002557fb7f0e37f8e78f28f1f21b98f426d307e949c22f2997ca4b562ee90c3e5b30b306020604051428152a160015f516020611a095f395f51905f5255005b610b89611751565b610b40565b6356212c7760e11b5f5260045ffd5b346101eb5760203660031901126101eb5760206102c9610bbb610e0a565b610e7f565b346101eb5760403660031901126101eb57610bd9610df4565b336001600160a01b03821603610bf55761031390600435611547565b63334bd91960e11b5f5260045ffd5b346101eb5760403660031901126101eb57610313600435610c23610df4565b90610c3c610309825f525f602052600160405f20015490565b61142e565b346101eb5760203660031901126101eb57600435610c5d611164565b610c6561119c565b80156104ab57335f5260076020528060405f205410610d4957610c87336111b7565b335f52600760205260405f20610c9e828254610e20565b9055610cac81600654610e20565b600655335f526007602052670de0b6b3a7640000610cd160405f205460035490610e41565b04335f52600860205260405f2055610d0a81337f0000000000000000000000000000000000000000000000000000000000000000611245565b6040519081527f7084f5476618d8e60b11ef0d7d3f06914655adb8793e28ff7f018d4c76d505d560203392a260015f516020611a095f395f51905f5255005b631e9acf1760e31b5f5260045ffd5b346101eb5760203660031901126101eb5760206102c96004355f525f602052600160405f20015490565b346101eb5760203660031901126101eb576004359063ffffffff60e01b82168092036101eb57602091637965db0b60e01b8114908115610dc4575b5015158152f35b6301ffc9a760e01b14905083610dbd565b346101eb575f3660031901126101eb57602060405164e8d4a510008152f35b602435906001600160a01b03821682036101eb57565b600435906001600160a01b03821682036101eb57565b91908203918211610e2d57565b634e487b7160e01b5f52601160045260245ffd5b81810292918115918404141715610e2d57565b8115610e5e570490565b634e487b7160e01b5f52601260045260245ffd5b91908201809211610e2d57565b600654908115611003576003549160045480158015610fcd575b5050610ec86002547f000000000000000000000000000000000000000000000000000000000000000090610e72565b42101560055490670de0b6b3a7640000821090811591610fb3575b50610f65575b50506001600160a01b03165f81815260076020526040902054610f5a92670de0b6b3a764000091610f1a9190610e41565b04815f52600860205260405f205481115f14610f5d57610f4790825f52600860205260405f205490610e20565b905b5f52600960205260405f2054610e72565b90565b505f90610f49565b670de0b6b3a7640000819492940290808204670de0b6b3a76400001490151715610e2d57610fac670de0b6b3a764000092610fa6610f5a96610f1a94610e54565b90610e72565b9350610ee9565b821515915081610fc5575b505f610ee3565b90505f610fbe565b670de0b6b3a76400008293959202928304670de0b6b3a7640000141715610e2d57610fa684610ffb93610e54565b915f80610e99565b6001600160a01b03165f90815260096020526040902054919050565b90601f8019910116810190811067ffffffffffffffff82111761104157604052565b634e487b7160e01b5f52604160045260245ffd5b80156104ab5764e8d4a510008110611110576006549081156110d257670de0b6b3a7640000810290808204670de0b6b3a764000003610e2d576110c66110be7ff9a5da3a173eca8cd77c02ece3ff1467b8aa461ed3822201817f2d72fbc5428394602094610e54565b600354610e72565b600355604051908152a1565b7f3c9ac6b52f35feafbb98bba2d24a9afb05140bff0140379ea71f1f98dd27b538915080611104602092600454610e72565b600455604051908152a1565b63386c76d360e11b5f5260045ffd5b8015611161576020816111557f9db9090d4cd2fd574fb4903fcd18a7a99e1a8f3bdcf7ee81e24b8dfd209267b693600554610e72565b600555604051908152a1565b50565b60025f516020611a095f395f51905f52541461118d5760025f516020611a095f395f51905f5255565b633ee5aeb560e01b5f5260045ffd5b60ff600154166111a857565b63d93c066560e01b5f5260045ffd5b6111bf611751565b6001600160a01b03165f81815260076020526040902054600354670de0b6b3a7640000916111ed9190610e41565b0490805f52600860205260405f20548211611211575b5f52600860205260405f2055565b805f52600860205261122760405f205483610e20565b815f52600960205261123e60405f20918254610e72565b9055611203565b916040519163a9059cbb60e01b5f5260018060a01b031660045260245260205f60448180865af19060015f5114821615611285575b6040521561044f5750565b90600181151661129d57823b15153d1516169061127a565b503d5f823e3d90fd5b335f9081527ff7c9542c591017a21c74b6f3fab6263c7952fc0aaf9db4c22a2a04ddc7f8674f602052604090205460ff16156112de57565b63e2517d3f60e01b5f52336004527f65d7a28e3265b37a6474929f336521b332c1681b933f6cb9f3376673440d862a60245260445ffd5b335f9081525f5160206119e95f395f51905f52602052604090205460ff161561133a57565b63e2517d3f60e01b5f52336004525f5160206119c95f395f51905f5260245260445ffd5b5f8181526020818152604080832033845290915290205460ff16156113805750565b63e2517d3f60e01b5f523360045260245260445ffd5b6001600160a01b0381165f9081525f5160206119e95f395f51905f52602052604090205460ff16611429576001600160a01b03165f8181525f5160206119e95f395f51905f5260205260408120805460ff191660011790553391905f5160206119c95f395f51905f52907f2f8788117e7eff1d82e926ec794901d17c78024a50270940304540a733656f0d9080a4600190565b505f90565b5f818152602081815260408083206001600160a01b038616845290915290205460ff166114b0575f818152602081815260408083206001600160a01b0395909516808452949091528120805460ff19166001179055339291907f2f8788117e7eff1d82e926ec794901d17c78024a50270940304540a733656f0d9080a4600190565b50505f90565b6001600160a01b0381165f9081525f5160206119e95f395f51905f52602052604090205460ff1615611429576001600160a01b03165f8181525f5160206119e95f395f51905f5260205260408120805460ff191690553391905f5160206119c95f395f51905f52907ff6391f5c32d9c69d2a47ea670b442974b53935d1edc7fd64eb21e047a839171b9080a4600190565b5f818152602081815260408083206001600160a01b038616845290915290205460ff16156114b0575f818152602081815260408083206001600160a01b0395909516808452949091528120805460ff19169055339291907ff6391f5c32d9c69d2a47ea670b442974b53935d1edc7fd64eb21e047a839171b9080a4600190565b600a546001600160a01b03168015611161576040516370a0823160e01b81523060048201527f0000000000000000000000000000000000000000000000000000000000000000916001600160a01b03831690602083602481855afa9283156109ea575f9361171d575b5060018310611717576116448382866118e5565b156116cd575b5050600a546001600160a01b031690813b156101eb575f9160248392604051948593849263534a7e1d60e11b845260048401525af190816116bd575b506116a557600a546116a3916001600160a01b039091169061188d565b565b600a546116a3916001600160a01b039091169061188d565b5f6116c79161101f565b5f611686565b6116d78185611932565b1561170457826116e7918561198d565b156116f2578061164a565b635274afe760e01b5f5260045260245ffd5b50635274afe760e01b5f5260045260245ffd5b50505050565b9092506020813d602011611749575b816117396020938361101f565b810103126101eb5751915f611630565b3d915061172c565b60065480156111615760045480158015611828575b50506117956002547f000000000000000000000000000000000000000000000000000000000000000090610e72565b42101560055490670de0b6b3a764000082109081159161180e575b506117b9575050565b5f600555670de0b6b3a7640000810290808204670de0b6b3a76400001481151715610e2d576110c66110be7ff9a5da3a173eca8cd77c02ece3ff1467b8aa461ed3822201817f2d72fbc5428394602094610e54565b821515915081611820575b505f6117b0565b90505f611819565b5f600455670de0b6b3a7640000820290828204670de0b6b3a7640000141715610e2d577ff9a5da3a173eca8cd77c02ece3ff1467b8aa461ed3822201817f2d72fbc542839161187c6110be85602094610e54565b600355604051908152a15f80611766565b906118995f82846118e5565b156118a2575050565b6118ac8183611932565b156118c4575f6118bc918361198d565b1561044f5750565b50635274afe760e01b5f9081526001600160a01b0391909116600452602490fd5b92916040519163095ea7b360e01b5f5260018060a01b031660045260245260205f60448180875af19260015f5114841615611921575b50604052565b3d15903b151516909216915f61191b565b60405163095ea7b360e01b5f9081526001600160a01b03909316600452602483905290929160209060448180875af19260015f51148416156119745750604052565b60018492941516610485573b15153d151616915f61191b565b92916040519163095ea7b360e01b5f5260018060a01b031660045260245260205f60448180875af19260015f5114841615611974575060405256fe5cdba25167d99b7ec892ee2622f05561f779da5483692d63a6740a77a2c8d05623238c112cd0f73ff33f1afbf3a111ab8f3ed3d459d8b6800885f813456e5d699b779b17422d0df92223018b32b4d1fa46e071723d6817e2486d003becc55f00a2646970667358221220282f3bace9f77f13e929060677906319e69e6fcfc99e038ad8fc4d0387abb77f64736f6c634300082200332f8788117e7eff1d82e926ec794901d17c78024a50270940304540a733656f0df7c9542c591017a21c74b6f3fab6263c7952fc0aaf9db4c22a2a04ddc7f8674fad3228b676f7d3cd4284a5443f17f1962b36e491b30a40b2405849e597ba5fb5",
        "linkReferences": {}
    },
    "methodIdentifiers": {
        "DEFAULT_ADMIN_ROLE()": "a217fddf",
        "MIN_INITIAL_DEPOSIT()": "2ad876e0",
        "MIN_NOTIFY()": "c7c11f3e",
        "MIN_PENALTY_FLUSH()": "497a04e0",
        "PAUSER_ROLE()": "e63ab1e9",
        "REWARDS_NOTIFIER_ROLE()": "a750e694",
        "accRewardPerShare()": "939d6237",
        "addPendingPenalty(uint256)": "89423406",
        "advanceEpoch()": "3cf80e6c",
        "balanceOf(address)": "70a08231",
        "claim()": "4e71d92d",
        "deposit(uint256)": "b6b55f25",
        "epochDuration()": "4ff0876a",
        "getRoleAdmin(bytes32)": "248a9ca3",
        "grantRole(bytes32,address)": "2f2ff15d",
        "hasRole(bytes32,address)": "91d14854",
        "k613()": "83767b78",
        "lastEpochFlushAt()": "8aef97ce",
        "nextEpochAt()": "da566df6",
        "notifyReward(uint256)": "60993b5b",
        "pause()": "8456cb59",
        "paused()": "5c975abb",
        "pendingPenalties()": "8deb8fc8",
        "pendingRewards()": "eded3fda",
        "pendingRewardsOf(address)": "3988bad8",
        "renounceRole(bytes32,address)": "36568abe",
        "revokeRole(bytes32,address)": "d547741f",
        "rewardToken()": "f7c618c1",
        "setStaking(address)": "8ff39099",
        "staking()": "4cf088d9",
        "stakingToken()": "72f702f3",
        "supportsInterface(bytes4)": "01ffc9a7",
        "totalDeposits()": "7d882097",
        "unpause()": "3f4ba83a",
        "userPendingRewards(address)": "fc9d7711",
        "userRewardDebt(address)": "4bf6f9e7",
        "withdraw(uint256)": "2e1a7d4d"
    },
    "id": 75
}