{
    "abi": [
        {
            "type": "constructor",
            "inputs": [
                {
                    "name": "k613Token",
                    "type": "address",
                    "internalType": "address"
                },
                {
                    "name": "xk613Token",
                    "type": "address",
                    "internalType": "address"
                },
                {
                    "name": "lockDuration_",
                    "type": "uint256",
                    "internalType": "uint256"
                },
                {
                    "name": "instantExitPenaltyBps_",
                    "type": "uint256",
                    "internalType": "uint256"
                }
            ],
            "stateMutability": "nonpayable"
        },
        {
            "type": "function",
            "name": "DEFAULT_ADMIN_ROLE",
            "inputs": [],
            "outputs": [
                {
                    "name": "",
                    "type": "bytes32",
                    "internalType": "bytes32"
                }
            ],
            "stateMutability": "view"
        },
        {
            "type": "function",
            "name": "MAX_BASIS_POINTS",
            "inputs": [],
            "outputs": [
                {
                    "name": "",
                    "type": "uint256",
                    "internalType": "uint256"
                }
            ],
            "stateMutability": "view"
        },
        {
            "type": "function",
            "name": "MAX_EXIT_REQUESTS",
            "inputs": [],
            "outputs": [
                {
                    "name": "",
                    "type": "uint256",
                    "internalType": "uint256"
                }
            ],
            "stateMutability": "view"
        },
        {
            "type": "function",
            "name": "PAUSER_ROLE",
            "inputs": [],
            "outputs": [
                {
                    "name": "",
                    "type": "bytes32",
                    "internalType": "bytes32"
                }
            ],
            "stateMutability": "view"
        },
        {
            "type": "function",
            "name": "addSystemStaker",
            "inputs": [
                {
                    "name": "account",
                    "type": "address",
                    "internalType": "address"
                }
            ],
            "outputs": [],
            "stateMutability": "nonpayable"
        },
        {
            "type": "function",
            "name": "cancelExit",
            "inputs": [
                {
                    "name": "index",
                    "type": "uint256",
                    "internalType": "uint256"
                }
            ],
            "outputs": [],
            "stateMutability": "nonpayable"
        },
        {
            "type": "function",
            "name": "deposits",
            "inputs": [
                {
                    "name": "user",
                    "type": "address",
                    "internalType": "address"
                }
            ],
            "outputs": [
                {
                    "name": "amount",
                    "type": "uint256",
                    "internalType": "uint256"
                },
                {
                    "name": "exitQueue",
                    "type": "tuple[]",
                    "internalType": "struct Staking.ExitRequest[]",
                    "components": [
                        {
                            "name": "amount",
                            "type": "uint256",
                            "internalType": "uint256"
                        },
                        {
                            "name": "exitInitiatedAt",
                            "type": "uint256",
                            "internalType": "uint256"
                        }
                    ]
                }
            ],
            "stateMutability": "view"
        },
        {
            "type": "function",
            "name": "exit",
            "inputs": [
                {
                    "name": "index",
                    "type": "uint256",
                    "internalType": "uint256"
                }
            ],
            "outputs": [],
            "stateMutability": "nonpayable"
        },
        {
            "type": "function",
            "name": "exitQueueLength",
            "inputs": [
                {
                    "name": "user",
                    "type": "address",
                    "internalType": "address"
                }
            ],
            "outputs": [
                {
                    "name": "",
                    "type": "uint256",
                    "internalType": "uint256"
                }
            ],
            "stateMutability": "view"
        },
        {
            "type": "function",
            "name": "exitRequestAt",
            "inputs": [
                {
                    "name": "user",
                    "type": "address",
                    "internalType": "address"
                },
                {
                    "name": "index",
                    "type": "uint256",
                    "internalType": "uint256"
                }
            ],
            "outputs": [
                {
                    "name": "amount",
                    "type": "uint256",
                    "internalType": "uint256"
                },
                {
                    "name": "exitInitiatedAt",
                    "type": "uint256",
                    "internalType": "uint256"
                }
            ],
            "stateMutability": "view"
        },
        {
            "type": "function",
            "name": "getRoleAdmin",
            "inputs": [
                {
                    "name": "role",
                    "type": "bytes32",
                    "internalType": "bytes32"
                }
            ],
            "outputs": [
                {
                    "name": "",
                    "type": "bytes32",
                    "internalType": "bytes32"
                }
            ],
            "stateMutability": "view"
        },
        {
            "type": "function",
            "name": "getSystemStakers",
            "inputs": [],
            "outputs": [
                {
                    "name": "",
                    "type": "address[]",
                    "internalType": "address[]"
                }
            ],
            "stateMutability": "view"
        },
        {
            "type": "function",
            "name": "grantRole",
            "inputs": [
                {
                    "name": "role",
                    "type": "bytes32",
                    "internalType": "bytes32"
                },
                {
                    "name": "account",
                    "type": "address",
                    "internalType": "address"
                }
            ],
            "outputs": [],
            "stateMutability": "nonpayable"
        },
        {
            "type": "function",
            "name": "hasRole",
            "inputs": [
                {
                    "name": "role",
                    "type": "bytes32",
                    "internalType": "bytes32"
                },
                {
                    "name": "account",
                    "type": "address",
                    "internalType": "address"
                }
            ],
            "outputs": [
                {
                    "name": "",
                    "type": "bool",
                    "internalType": "bool"
                }
            ],
            "stateMutability": "view"
        },
        {
            "type": "function",
            "name": "initiateExit",
            "inputs": [
                {
                    "name": "amount",
                    "type": "uint256",
                    "internalType": "uint256"
                }
            ],
            "outputs": [],
            "stateMutability": "nonpayable"
        },
        {
            "type": "function",
            "name": "instantExit",
            "inputs": [
                {
                    "name": "index",
                    "type": "uint256",
                    "internalType": "uint256"
                }
            ],
            "outputs": [],
            "stateMutability": "nonpayable"
        },
        {
            "type": "function",
            "name": "instantExitPenaltyBps",
            "inputs": [],
            "outputs": [
                {
                    "name": "",
                    "type": "uint256",
                    "internalType": "uint256"
                }
            ],
            "stateMutability": "view"
        },
        {
            "type": "function",
            "name": "isSystemStaker",
            "inputs": [
                {
                    "name": "",
                    "type": "address",
                    "internalType": "address"
                }
            ],
            "outputs": [
                {
                    "name": "",
                    "type": "bool",
                    "internalType": "bool"
                }
            ],
            "stateMutability": "view"
        },
        {
            "type": "function",
            "name": "k613",
            "inputs": [],
            "outputs": [
                {
                    "name": "",
                    "type": "address",
                    "internalType": "contract IERC20"
                }
            ],
            "stateMutability": "view"
        },
        {
            "type": "function",
            "name": "lockDuration",
            "inputs": [],
            "outputs": [
                {
                    "name": "",
                    "type": "uint256",
                    "internalType": "uint256"
                }
            ],
            "stateMutability": "view"
        },
        {
            "type": "function",
            "name": "maxExitRequests",
            "inputs": [],
            "outputs": [
                {
                    "name": "",
                    "type": "uint256",
                    "internalType": "uint256"
                }
            ],
            "stateMutability": "view"
        },
        {
            "type": "function",
            "name": "pause",
            "inputs": [],
            "outputs": [],
            "stateMutability": "nonpayable"
        },
        {
            "type": "function",
            "name": "paused",
            "inputs": [],
            "outputs": [
                {
                    "name": "",
                    "type": "bool",
                    "internalType": "bool"
                }
            ],
            "stateMutability": "view"
        },
        {
            "type": "function",
            "name": "redeemRewards",
            "inputs": [
                {
                    "name": "amount",
                    "type": "uint256",
                    "internalType": "uint256"
                }
            ],
            "outputs": [],
            "stateMutability": "nonpayable"
        },
        {
            "type": "function",
            "name": "removeSystemStaker",
            "inputs": [
                {
                    "name": "account",
                    "type": "address",
                    "internalType": "address"
                }
            ],
            "outputs": [],
            "stateMutability": "nonpayable"
        },
        {
            "type": "function",
            "name": "renounceRole",
            "inputs": [
                {
                    "name": "role",
                    "type": "bytes32",
                    "internalType": "bytes32"
                },
                {
                    "name": "callerConfirmation",
                    "type": "address",
                    "internalType": "address"
                }
            ],
            "outputs": [],
            "stateMutability": "nonpayable"
        },
        {
            "type": "function",
            "name": "revokeRole",
            "inputs": [
                {
                    "name": "role",
                    "type": "bytes32",
                    "internalType": "bytes32"
                },
                {
                    "name": "account",
                    "type": "address",
                    "internalType": "address"
                }
            ],
            "outputs": [],
            "stateMutability": "nonpayable"
        },
        {
            "type": "function",
            "name": "rewardsDistributor",
            "inputs": [],
            "outputs": [
                {
                    "name": "",
                    "type": "address",
                    "internalType": "contract RewardsDistributor"
                }
            ],
            "stateMutability": "view"
        },
        {
            "type": "function",
            "name": "setInstantExitPenaltyBps",
            "inputs": [
                {
                    "name": "newBps",
                    "type": "uint256",
                    "internalType": "uint256"
                }
            ],
            "outputs": [],
            "stateMutability": "nonpayable"
        },
        {
            "type": "function",
            "name": "setMaxExitRequests",
            "inputs": [
                {
                    "name": "newValue",
                    "type": "uint256",
                    "internalType": "uint256"
                }
            ],
            "outputs": [],
            "stateMutability": "nonpayable"
        },
        {
            "type": "function",
            "name": "setRewardsDistributor",
            "inputs": [
                {
                    "name": "distributor",
                    "type": "address",
                    "internalType": "address"
                }
            ],
            "outputs": [],
            "stateMutability": "nonpayable"
        },
        {
            "type": "function",
            "name": "stake",
            "inputs": [
                {
                    "name": "amount",
                    "type": "uint256",
                    "internalType": "uint256"
                }
            ],
            "outputs": [],
            "stateMutability": "nonpayable"
        },
        {
            "type": "function",
            "name": "supportsInterface",
            "inputs": [
                {
                    "name": "interfaceId",
                    "type": "bytes4",
                    "internalType": "bytes4"
                }
            ],
            "outputs": [
                {
                    "name": "",
                    "type": "bool",
                    "internalType": "bool"
                }
            ],
            "stateMutability": "view"
        },
        {
            "type": "function",
            "name": "totalBacking",
            "inputs": [],
            "outputs": [
                {
                    "name": "",
                    "type": "uint256",
                    "internalType": "uint256"
                }
            ],
            "stateMutability": "view"
        },
        {
            "type": "function",
            "name": "unpause",
            "inputs": [],
            "outputs": [],
            "stateMutability": "nonpayable"
        },
        {
            "type": "function",
            "name": "xk613",
            "inputs": [],
            "outputs": [
                {
                    "name": "",
                    "type": "address",
                    "internalType": "contract xK613"
                }
            ],
            "stateMutability": "view"
        },
        {
            "type": "event",
            "name": "ExitCancelled",
            "inputs": [
                {
                    "name": "account",
                    "type": "address",
                    "indexed": true,
                    "internalType": "address"
                },
                {
                    "name": "index",
                    "type": "uint256",
                    "indexed": false,
                    "internalType": "uint256"
                }
            ],
            "anonymous": false
        },
        {
            "type": "event",
            "name": "ExitInitiated",
            "inputs": [
                {
                    "name": "account",
                    "type": "address",
                    "indexed": true,
                    "internalType": "address"
                },
                {
                    "name": "index",
                    "type": "uint256",
                    "indexed": false,
                    "internalType": "uint256"
                },
                {
                    "name": "amount",
                    "type": "uint256",
                    "indexed": false,
                    "internalType": "uint256"
                },
                {
                    "name": "exitInitiatedAt",
                    "type": "uint256",
                    "indexed": false,
                    "internalType": "uint256"
                }
            ],
            "anonymous": false
        },
        {
            "type": "event",
            "name": "Exited",
            "inputs": [
                {
                    "name": "account",
                    "type": "address",
                    "indexed": true,
                    "internalType": "address"
                },
                {
                    "name": "index",
                    "type": "uint256",
                    "indexed": false,
                    "internalType": "uint256"
                },
                {
                    "name": "amount",
                    "type": "uint256",
                    "indexed": false,
                    "internalType": "uint256"
                }
            ],
            "anonymous": false
        },
        {
            "type": "event",
            "name": "InstantExit",
            "inputs": [
                {
                    "name": "account",
                    "type": "address",
                    "indexed": true,
                    "internalType": "address"
                },
                {
                    "name": "index",
                    "type": "uint256",
                    "indexed": false,
                    "internalType": "uint256"
                },
                {
                    "name": "amount",
                    "type": "uint256",
                    "indexed": false,
                    "internalType": "uint256"
                },
                {
                    "name": "penalty",
                    "type": "uint256",
                    "indexed": false,
                    "internalType": "uint256"
                }
            ],
            "anonymous": false
        },
        {
            "type": "event",
            "name": "InstantExitPenaltyBpsUpdated",
            "inputs": [
                {
                    "name": "oldBps",
                    "type": "uint256",
                    "indexed": false,
                    "internalType": "uint256"
                },
                {
                    "name": "newBps",
                    "type": "uint256",
                    "indexed": false,
                    "internalType": "uint256"
                }
            ],
            "anonymous": false
        },
        {
            "type": "event",
            "name": "MaxExitRequestsUpdated",
            "inputs": [
                {
                    "name": "oldValue",
                    "type": "uint256",
                    "indexed": false,
                    "internalType": "uint256"
                },
                {
                    "name": "newValue",
                    "type": "uint256",
                    "indexed": false,
                    "internalType": "uint256"
                }
            ],
            "anonymous": false
        },
        {
            "type": "event",
            "name": "Paused",
            "inputs": [
                {
                    "name": "account",
                    "type": "address",
                    "indexed": false,
                    "internalType": "address"
                }
            ],
            "anonymous": false
        },
        {
            "type": "event",
            "name": "RewardsDistributorUpdated",
            "inputs": [
                {
                    "name": "distributor",
                    "type": "address",
                    "indexed": true,
                    "internalType": "address"
                }
            ],
            "anonymous": false
        },
        {
            "type": "event",
            "name": "RewardsRedeemed",
            "inputs": [
                {
                    "name": "account",
                    "type": "address",
                    "indexed": true,
                    "internalType": "address"
                },
                {
                    "name": "amount",
                    "type": "uint256",
                    "indexed": false,
                    "internalType": "uint256"
                }
            ],
            "anonymous": false
        },
        {
            "type": "event",
            "name": "RoleAdminChanged",
            "inputs": [
                {
                    "name": "role",
                    "type": "bytes32",
                    "indexed": true,
                    "internalType": "bytes32"
                },
                {
                    "name": "previousAdminRole",
                    "type": "bytes32",
                    "indexed": true,
                    "internalType": "bytes32"
                },
                {
                    "name": "newAdminRole",
                    "type": "bytes32",
                    "indexed": true,
                    "internalType": "bytes32"
                }
            ],
            "anonymous": false
        },
        {
            "type": "event",
            "name": "RoleGranted",
            "inputs": [
                {
                    "name": "role",
                    "type": "bytes32",
                    "indexed": true,
                    "internalType": "bytes32"
                },
                {
                    "name": "account",
                    "type": "address",
                    "indexed": true,
                    "internalType": "address"
                },
                {
                    "name": "sender",
                    "type": "address",
                    "indexed": true,
                    "internalType": "address"
                }
            ],
            "anonymous": false
        },
        {
            "type": "event",
            "name": "RoleRevoked",
            "inputs": [
                {
                    "name": "role",
                    "type": "bytes32",
                    "indexed": true,
                    "internalType": "bytes32"
                },
                {
                    "name": "account",
                    "type": "address",
                    "indexed": true,
                    "internalType": "address"
                },
                {
                    "name": "sender",
                    "type": "address",
                    "indexed": true,
                    "internalType": "address"
                }
            ],
            "anonymous": false
        },
        {
            "type": "event",
            "name": "Staked",
            "inputs": [
                {
                    "name": "account",
                    "type": "address",
                    "indexed": true,
                    "internalType": "address"
                },
                {
                    "name": "amount",
                    "type": "uint256",
                    "indexed": false,
                    "internalType": "uint256"
                }
            ],
            "anonymous": false
        },
        {
            "type": "event",
            "name": "SystemStakerUpdated",
            "inputs": [
                {
                    "name": "account",
                    "type": "address",
                    "indexed": true,
                    "internalType": "address"
                },
                {
                    "name": "added",
                    "type": "bool",
                    "indexed": false,
                    "internalType": "bool"
                }
            ],
            "anonymous": false
        },
        {
            "type": "event",
            "name": "Unpaused",
            "inputs": [
                {
                    "name": "account",
                    "type": "address",
                    "indexed": false,
                    "internalType": "address"
                }
            ],
            "anonymous": false
        },
        {
            "type": "error",
            "name": "AccessControlBadConfirmation",
            "inputs": []
        },
        {
            "type": "error",
            "name": "AccessControlUnauthorizedAccount",
            "inputs": [
                {
                    "name": "account",
                    "type": "address",
                    "internalType": "address"
                },
                {
                    "name": "neededRole",
                    "type": "bytes32",
                    "internalType": "bytes32"
                }
            ]
        },
        {
            "type": "error",
            "name": "AlreadySystemStaker",
            "inputs": []
        },
        {
            "type": "error",
            "name": "AmountExceedsStake",
            "inputs": []
        },
        {
            "type": "error",
            "name": "EnforcedPause",
            "inputs": []
        },
        {
            "type": "error",
            "name": "ExceedsRewardPortion",
            "inputs": []
        },
        {
            "type": "error",
            "name": "ExitQueueFull",
            "inputs": []
        },
        {
            "type": "error",
            "name": "ExpectedPause",
            "inputs": []
        },
        {
            "type": "error",
            "name": "InsufficientSystemBacking",
            "inputs": []
        },
        {
            "type": "error",
            "name": "InsufficientxK613",
            "inputs": []
        },
        {
            "type": "error",
            "name": "InvalidBps",
            "inputs": []
        },
        {
            "type": "error",
            "name": "InvalidExitIndex",
            "inputs": []
        },
        {
            "type": "error",
            "name": "InvalidLockDuration",
            "inputs": []
        },
        {
            "type": "error",
            "name": "InvalidMaxExitRequests",
            "inputs": []
        },
        {
            "type": "error",
            "name": "Locked",
            "inputs": []
        },
        {
            "type": "error",
            "name": "NotSystemStaker",
            "inputs": []
        },
        {
            "type": "error",
            "name": "NothingToInitiate",
            "inputs": []
        },
        {
            "type": "error",
            "name": "ReentrancyGuardReentrantCall",
            "inputs": []
        },
        {
            "type": "error",
            "name": "RewardsDistributorNotSet",
            "inputs": []
        },
        {
            "type": "error",
            "name": "SafeERC20FailedOperation",
            "inputs": [
                {
                    "name": "token",
                    "type": "address",
                    "internalType": "address"
                }
            ]
        },
        {
            "type": "error",
            "name": "Unlocked",
            "inputs": []
        },
        {
            "type": "error",
            "name": "ZeroAddress",
            "inputs": []
        },
        {
            "type": "error",
            "name": "ZeroAmount",
            "inputs": []
        }
    ],
    "bytecode": {
        "object": "0x60e0346101a957601f6120a238819003918201601f19168301916001600160401b038311848410176101ad578084926080946040528339810103126101a957610047816101c1565b90610054602082016101c1565b604082015160609092015160017f9b779b17422d0df92223018b32b4d1fa46e071723d6817e2486d003becc55f0055926001600160a01b031680158015610198575b61018957821561017a578315801561016f575b610160576100b6336101d5565b506100c03361024b565b506080526001600160a01b031660a05260c0526003556064600255604051611d6390816102df82396080518181816108400152818161089601528181610ae901528181610c9e01528181610de10152611320015260a0518181816102d801528181610393015281816107af01528181610b1001528181610d7601528181610ee9015261118f015260c05181818161070e01528181610d2001526116610152f35b63c6cc5d7f60e01b5f5260045ffd5b5061271084116100a9565b630f962f3d60e31b5f5260045ffd5b63d92e233d60e01b5f5260045ffd5b506001600160a01b03821615610096565b5f80fd5b634e487b7160e01b5f52604160045260245ffd5b51906001600160a01b03821682036101a957565b6001600160a01b0381165f9081525f5160206120825f395f51905f52602052604090205460ff16610246576001600160a01b03165f8181525f5160206120825f395f51905f5260205260408120805460ff191660011790553391905f5160206120425f395f51905f528180a4600190565b505f90565b6001600160a01b0381165f9081525f5160206120625f395f51905f52602052604090205460ff16610246576001600160a01b03165f8181525f5160206120625f395f51905f5260205260408120805460ff191660011790553391907f65d7a28e3265b37a6474929f336521b332c1681b933f6cb9f3376673440d862a905f5160206120425f395f51905f529080a460019056fe6080806040526004361015610012575f80fd5b5f905f3560e01c90816301ffc9a7146117c2575080630208c1cd14611684578063045544431461164a5780630c136286146115fa578063248a9ca3146115c85780632f2ff15d1461158957806334ee78721461152157806335589f121461141e57806335f11cc21461111957806336568abe146110d45780633f2a5540146110ab5780633f4ba83a1461104357806347a743ad146109a8578063590f3ba7146110045780635c975abb14610fe15780636d8e193114610f65578063726123b414610e905780637582a0f614610e725780637f8661a114610ccd57806383767b7814610c885780638456cb5914610c2e57806391d1485414610be5578063a217fddf14610bc9578063a694fc3a14610a8e578063bb238b30146109c6578063c1c05c8d146109a8578063c4e9c056146106bb578063ce1e39211461067e578063d1f5c33b14610616578063d547741f146105cf578063e63ab1e914610594578063eb2cd25814610576578063f23c620c14610324578063f4ea93d814610307578063f8e8289e146102c25763fc7e286d146101aa575f80fd5b346102bf5760203660031901126102bf576001600160a01b036101cb611815565b1681526005602052604081206001815491019081549267ffffffffffffffff84116102ab578284916040519261020760208260051b01856118af565b80845260208401809383526020832083915b83831061027657505050506040519384936040850191855260406020860152518091526060840192915b818110610251575050500390f35b8251805185526020908101518186015286955060409094019390920191600101610243565b6002602060019260409a98999a5161028d81611893565b85548152848601548382015281520192019201919096959496610219565b634e487b7160e01b81526041600452602490fd5b80fd5b50346102bf57806003193601126102bf576040517f00000000000000000000000000000000000000000000000000000000000000006001600160a01b03168152602090f35b50346102bf57806003193601126102bf5760206040516127108152f35b50346102bf5760203660031901126102bf57600435610341611a5c565b610349611a94565b80156105675733825260056020526040822061036433611aaf565b81548181111561055557906103789161186d565b8211610546576040516370a0823160e01b81523360048201527f00000000000000000000000000000000000000000000000000000000000000006001600160a01b03169190602081602481865afa801561053b5784918691610502575b50106104f3576001019081546002548110156104e457604051906103f882611893565b8482526020820190428252600160401b8110156104d05780600161041f920186558561187a565b9290926104bc575182555160019091015561043f90839030903390611b00565b545f1981019081116104a8576104917fe4e87814b2d0d60d699b2f45f4e9558efd4e7ac2e6f14567c4f9cd929be45c6f9160405191829133954291846040919493926060820195825260208201520152565b0390a260015f516020611d0e5f395f51905f525580f35b634e487b7160e01b83526011600452602483fd5b634e487b7160e01b87526004879052602487fd5b634e487b7160e01b87526041600452602487fd5b6383fdb1cd60e01b8552600485fd5b631792719d60e11b8452600484fd5b9150506020813d602011610533575b8161051e602093836118af565b8101031261052f578390515f6103d5565b5f80fd5b3d9150610511565b6040513d87823e3d90fd5b63b4760d1960e01b8352600483fd5b600162bdfad760e01b03198552600485fd5b631f2a200560e01b8252600482fd5b50346102bf57806003193601126102bf576020600654604051908152f35b50346102bf57806003193601126102bf5760206040517f65d7a28e3265b37a6474929f336521b332c1681b933f6cb9f3376673440d862a8152f35b50346102bf5760403660031901126102bf576106126004356105ef61182b565b9061060d610608825f525f602052600160405f20015490565b61199c565b611bea565b5080f35b50346102bf5760203660031901126102bf57610630611815565b6106386118de565b600480546001600160a01b0319166001600160a01b039290921691821790557f1cc0d0fcd88df90cde5f20b27b655722f28afe56a6384c3c7a339ec18564c4398280a280f35b50346102bf5760203660031901126102bf576020906001906040906001600160a01b036106a9611815565b16815260058452200154604051908152f35b50346102bf5760203660031901126102bf576004356106d8611a5c565b6106e0611a94565b33825260056020526040822060018101805483101561099957826107039161187a565b5061073360018201547f0000000000000000000000000000000000000000000000000000000000000000906118d1565b42101561098a5754600354808202908282041482151715610962576127108101908181116109765761270f0190811161096257612710900490610776828261186d565b9282151590818061094f575b610940576107908633611c6a565b61079b83825461186d565b90556107a98260065461186d565b600655857f00000000000000000000000000000000000000000000000000000000000000006001600160a01b0316803b156109235760405163079cc67960e41b8152306004820152602481018590529082908290604490829084905af1801561091857610927575b5050610882575b6108647f1285dbd6094157b530d43e51966a26a3514412fa92ad718fc1290f26e80b661593337f0000000000000000000000000000000000000000000000000000000000000000611b92565b60408051948552602085019190915283015233918060608101610491565b6004546108ba9083906001600160a01b03167f0000000000000000000000000000000000000000000000000000000000000000611b92565b60045485906001600160a01b0316803b15610923578180916024604051809481936344a11a0360e11b83528960048401525af18015610918576108ff575b5050610818565b81610909916118af565b61091457845f6108f8565b8480fd5b6040513d84823e3d90fd5b5080fd5b81610931916118af565b61093c57855f610811565b8580fd5b633e3ed4f760e21b8752600487fd5b506004546001600160a01b031615610782565b634e487b7160e01b85526011600452602485fd5b634e487b7160e01b86526011600452602486fd5b6319aad37160e01b8452600484fd5b639ca8eef960e01b8452600484fd5b50346102bf57806003193601126102bf576020600254604051908152f35b50346102bf57806003193601126102bf5760405180602060075491828152018091600785527fa66cc928b5edb82af9bd49922954155ab7b0942694bea4ce44661d9a8736c68890855b818110610a6f5750505082610a259103836118af565b604051928392602084019060208552518091526040840192915b818110610a4d575050500390f35b82516001600160a01b0316845285945060209384019390920191600101610a3f565b82546001600160a01b0316845260209093019260019283019201610a0f565b50346102bf5760203660031901126102bf57600435610aab611a5c565b610ab3611a94565b801561056757338252600560205260408220610ad08282546118d1565b9055610ade816006546118d1565b600655610b0d8130337f0000000000000000000000000000000000000000000000000000000000000000611b00565b817f00000000000000000000000000000000000000000000000000000000000000006001600160a01b0316803b15610923576040516340c10f1960e01b8152336004820152602481018490529082908290604490829084905af1801561091857610bb4575b50506040519081527f9e71bc8eea02a63969f509818f2dafb9254532904319f9dbda79b67bd34a5f3d60203392a260015f516020611d0e5f395f51905f525580f35b81610bbe916118af565b61092357815f610b72565b50346102bf57806003193601126102bf57602090604051908152f35b50346102bf5760403660031901126102bf576040610c0161182b565b91600435815280602052209060018060a01b03165f52602052602060ff60405f2054166040519015158152f35b50346102bf57806003193601126102bf57610c4761192d565b610c4f611a94565b600160ff19815416176001557f62e78cea01bee320cd4e420270b5ea74000d11b0c9f74754ebdbfc544b05a2586020604051338152a180f35b50346102bf57806003193601126102bf576040517f00000000000000000000000000000000000000000000000000000000000000006001600160a01b03168152602090f35b50346102bf5760203660031901126102bf57600435610cea611a5c565b610cf2611a94565b3382526005602052604082206001810180548310156109995782610d159161187a565b50610d4560018201547f0000000000000000000000000000000000000000000000000000000000000000906118d1565b4210610e63575490610d578333611c6a565b610d6282825461186d565b9055610d708160065461186d565b600655827f00000000000000000000000000000000000000000000000000000000000000006001600160a01b0316803b156109235760405163079cc67960e41b8152306004820152602481018490529082908290604490829084905af1801561091857610e4a575b5050610e0581337f0000000000000000000000000000000000000000000000000000000000000000611b92565b60405191825260208201527fba49bb5279636ff80eebc4fcda6a47bdf6053db74c3719cc3f9cc54e44b2878b60403392a260015f516020611d0e5f395f51905f525580f35b81610e54916118af565b610e5f57825f610dd8565b8280fd5b6303cb96db60e21b8452600484fd5b50346102bf57806003193601126102bf576020600354604051908152f35b50346102bf5760203660031901126102bf57600435610ead611a5c565b610eb5611a94565b3382526005602052600160408320018054821015610f5657610eda82610f169261187a565b5054610ee68333611c6a565b337f00000000000000000000000000000000000000000000000000000000000000006001600160a01b0316611b92565b6040519081527fc13b3459e1e44bb22a6eaf26970a9cbea34628d966d84909f839f724003175e360203392a260015f516020611d0e5f395f51905f525580f35b639ca8eef960e01b8352600483fd5b50346102bf5760203660031901126102bf57600435610f826118de565b80158015610fd6575b610fc7577f19b68578e3f3d94780a28dceddb9b78527e91947734ede6c963c75e70942a37060406003548151908152836020820152a160035580f35b63c6cc5d7f60e01b8252600482fd5b506127108111610f8b565b50346102bf57806003193601126102bf57602060ff600154166040519015158152f35b50346102bf5760203660031901126102bf5760209060ff906040906001600160a01b0361102f611815565b168152600884522054166040519015158152f35b50346102bf57806003193601126102bf5761105c61192d565b60015460ff81161561109c5760ff19166001557f5db9ee0a495bf2e6ff9c91a7834c1ba4fdd244a5e8aa4e537bd38aeae4b073aa6020604051338152a180f35b638dfc202b60e01b8252600482fd5b50346102bf57806003193601126102bf576004546040516001600160a01b039091168152602090f35b50346102bf5760403660031901126102bf576110ee61182b565b336001600160a01b0382160361110a5761061290600435611bea565b63334bd91960e11b8252600482fd5b503461052f57602036600319011261052f57600435611136611a5c565b61113e611a94565b801561140f5761114d33611aaf565b335f5260056020528060405f2054115f146114075761117890335f52600560205260405f205461186d565b915b6040516370a0823160e01b81523360048201527f00000000000000000000000000000000000000000000000000000000000000006001600160a01b031693602082602481885afa918215611399575f926113d3575b50808211156113cb576111e19161186d565b82116113bc5781600754935f935b858510806113b3575b156112bf5761120685611841565b905460039190911b1c6001600160a01b03169061122282611aaf565b825f5260056020528060405f2054115f146112b85761124d90835f52600560205260405f205461186d565b80156112af57611280929190808211156112a757915b5f52600560205260405f2061127983825461186d565b905561186d565b935b5f19811461129357600101936111ef565b634e487b7160e01b5f52601160045260245ffd5b508091611263565b50949050611282565b505f61124d565b6113a4576112cf8260065461186d565b6006556112de82303384611b00565b803b1561052f5760405163079cc67960e41b815230600482015260248101839052905f908290604490829084905af1801561139957611384575b5061134481337f0000000000000000000000000000000000000000000000000000000000000000611b92565b6040519081527fd3b345692d9b0b5efeefdc998a164ad6b21c95d6223c5643f8fdb7ef6e4b3c4060203392a260015f516020611d0e5f395f51905f525580f35b6113919192505f906118af565b5f9082611318565b6040513d5f823e3d90fd5b63ef128db360e01b5f5260045ffd5b508015156111f8565b6322b0da0160e21b5f5260045ffd5b50505f6111e1565b9091506020813d6020116113ff575b816113ef602093836118af565b8101031261052f5751905f6111cf565b3d91506113e2565b505f9161117a565b631f2a200560e01b5f5260045ffd5b3461052f57602036600319011261052f57611437611815565b61143f6118de565b6001600160a01b03811690811561151257815f52600860205260ff60405f20541661150357815f52600860205260405f20600160ff1982541617905560075490600160401b8210156114ef5761149e8260016114c29401600755611841565b81546001600160a01b0393841660039290921b91821b9390911b1916919091179055565b7f9a7ef14f0bfbbe652a5bbdc776a5022a1d313aeea4264ad62948b20836434d2c602060405160018152a2005b634e487b7160e01b5f52604160045260245ffd5b63da573c6d60e01b5f5260045ffd5b63d92e233d60e01b5f5260045ffd5b3461052f57602036600319011261052f5760043561153d6118de565b801561157a577f2b0d302c216b39556cb3571f49bfb0be0c8c03e778fbfd69724103519600b68360406002548151908152836020820152a1600255005b6304a7bf4b60e41b5f5260045ffd5b3461052f57604036600319011261052f576115c66004356115a861182b565b906115c1610608825f525f602052600160405f20015490565b6119d4565b005b3461052f57602036600319011261052f5760206115f26004355f525f602052600160405f20015490565b604051908152f35b3461052f57604036600319011261052f576001600160a01b0361161b611815565b165f52600560205260406116366024356001835f200161187a565b506001815491015482519182526020820152f35b3461052f575f36600319011261052f5760206040517f00000000000000000000000000000000000000000000000000000000000000008152f35b3461052f57602036600319011261052f5761169d611815565b6116a56118de565b6001600160a01b03165f8181526008602052604090205460ff16156117b357805f52600860205260405f2060ff1981541690556007545f5b818110611712575b827f9a7ef14f0bfbbe652a5bbdc776a5022a1d313aeea4264ad62948b20836434d2c60206040515f8152a2005b8261171c82611841565b905460039190911b1c6001600160a01b03161461173b576001016116dd565b5f1982019182116112935761149e61175561176d93611841565b905460039190911b1c6001600160a01b031691611841565b600754801561179f575f190161178281611841565b81549060018060a01b039060031b1b1916905560075581806116e5565b634e487b7160e01b5f52603160045260245ffd5b63bc96da8560e01b5f5260045ffd5b3461052f57602036600319011261052f576004359063ffffffff60e01b821680920361052f57602091637965db0b60e01b8114908115611804575b5015158152f35b6301ffc9a760e01b149050836117fd565b600435906001600160a01b038216820361052f57565b602435906001600160a01b038216820361052f57565b6007548110156118595760075f5260205f2001905f90565b634e487b7160e01b5f52603260045260245ffd5b9190820391821161129357565b8054821015611859575f5260205f209060011b01905f90565b6040810190811067ffffffffffffffff8211176114ef57604052565b90601f8019910116810190811067ffffffffffffffff8211176114ef57604052565b9190820180921161129357565b335f9081527fad3228b676f7d3cd4284a5443f17f1962b36e491b30a40b2405849e597ba5fb5602052604090205460ff161561191657565b63e2517d3f60e01b5f52336004525f60245260445ffd5b335f9081527ff7c9542c591017a21c74b6f3fab6263c7952fc0aaf9db4c22a2a04ddc7f8674f602052604090205460ff161561196557565b63e2517d3f60e01b5f52336004527f65d7a28e3265b37a6474929f336521b332c1681b933f6cb9f3376673440d862a60245260445ffd5b5f8181526020818152604080832033845290915290205460ff16156119be5750565b63e2517d3f60e01b5f523360045260245260445ffd5b5f818152602081815260408083206001600160a01b038616845290915290205460ff16611a56575f818152602081815260408083206001600160a01b0395909516808452949091528120805460ff19166001179055339291907f2f8788117e7eff1d82e926ec794901d17c78024a50270940304540a733656f0d9080a4600190565b50505f90565b60025f516020611d0e5f395f51905f525414611a855760025f516020611d0e5f395f51905f5255565b633ee5aeb560e01b5f5260045ffd5b60ff60015416611aa057565b63d93c066560e01b5f5260045ffd5b6001600160a01b03165f908152600560205260408120600101805491929183915b818310611adc57505050565b909193611af7600191611aef878561187a565b5054906118d1565b94019190611ad0565b6040516323b872dd60e01b5f9081526001600160a01b039384166004529290931660245260449390935260209060648180865af19060015f5114821615611b71575b6040525f60605215611b515750565b635274afe760e01b5f9081526001600160a01b0391909116600452602490fd5b906001811516611b8957823b15153d15161690611b42565b503d5f823e3d90fd5b916040519163a9059cbb60e01b5f5260018060a01b031660045260245260205f60448180865af19060015f5114821615611bd2575b60405215611b515750565b906001811516611b8957823b15153d15161690611bc7565b5f818152602081815260408083206001600160a01b038616845290915290205460ff1615611a56575f818152602081815260408083206001600160a01b0395909516808452949091528120805460ff19169055339291907ff6391f5c32d9c69d2a47ea670b442974b53935d1edc7fd64eb21e047a839171b9080a4600190565b6001600160a01b03165f90815260056020526040902060010180549091905f19810190811161129357808203611cd6575b50508054801561179f575f190190611cb3828261187a565b611cc3576001815f809355015555565b634e487b7160e01b5f525f60045260245ffd5b611ce3611ceb918461187a565b50918361187a565b919091611cc357818114611c9b57600181819254845501549101555f80611c9b56fe9b779b17422d0df92223018b32b4d1fa46e071723d6817e2486d003becc55f00a2646970667358221220b6c1b758d6a148be4e88a548379da43fb641ac1bc97270fba0ce2074199eb6c564736f6c634300082200332f8788117e7eff1d82e926ec794901d17c78024a50270940304540a733656f0df7c9542c591017a21c74b6f3fab6263c7952fc0aaf9db4c22a2a04ddc7f8674fad3228b676f7d3cd4284a5443f17f1962b36e491b30a40b2405849e597ba5fb5",
        "linkReferences": {}
    },
    "methodIdentifiers": {
        "DEFAULT_ADMIN_ROLE()": "a217fddf",
        "MAX_BASIS_POINTS()": "f4ea93d8",
        "MAX_EXIT_REQUESTS()": "47a743ad",
        "PAUSER_ROLE()": "e63ab1e9",
        "addSystemStaker(address)": "35589f12",
        "cancelExit(uint256)": "726123b4",
        "deposits(address)": "fc7e286d",
        "exit(uint256)": "7f8661a1",
        "exitQueueLength(address)": "ce1e3921",
        "exitRequestAt(address,uint256)": "0c136286",
        "getRoleAdmin(bytes32)": "248a9ca3",
        "getSystemStakers()": "bb238b30",
        "grantRole(bytes32,address)": "2f2ff15d",
        "hasRole(bytes32,address)": "91d14854",
        "initiateExit(uint256)": "f23c620c",
        "instantExit(uint256)": "c4e9c056",
        "instantExitPenaltyBps()": "7582a0f6",
        "isSystemStaker(address)": "590f3ba7",
        "k613()": "83767b78",
        "lockDuration()": "04554443",
        "maxExitRequests()": "c1c05c8d",
        "pause()": "8456cb59",
        "paused()": "5c975abb",
        "redeemRewards(uint256)": "35f11cc2",
        "removeSystemStaker(address)": "0208c1cd",
        "renounceRole(bytes32,address)": "36568abe",
        "revokeRole(bytes32,address)": "d547741f",
        "rewardsDistributor()": "3f2a5540",
        "setInstantExitPenaltyBps(uint256)": "6d8e1931",
        "setMaxExitRequests(uint256)": "34ee7872",
        "setRewardsDistributor(address)": "d1f5c33b",
        "stake(uint256)": "a694fc3a",
        "supportsInterface(bytes4)": "01ffc9a7",
        "totalBacking()": "eb2cd258",
        "unpause()": "3f4ba83a",
        "xk613()": "f8e8289e"
    },
    "id": 76
}